:1000000000000420750300005D0300005F03000092
:1000100061030000630300006503000000000000AE
:100020000000000000000000000000006703000066
:1000300069030000000000006B0300006D03000076
:10004000CD300000C5720200853500006F0300004E
:100050006F0300006F030000D93300006F0300003E
:100060006F0300006F0300006F0300006F030000C8
:100070006F030000993600006F0300006F0300005B
:100080006F030000111B00006F0300006F030000EE
:10009000AD1B00006F0300006F0300006F03000042
:1000A0006F0300006F030000893800006F03000039
:1000B0006F0300006F03000000000000000000005C
:1000C0006F0300006F0300006F0300006F03000068
:1000D000B99402006F0300006F0300006F0300007B
:1000E0006F0300006F0300006F03000000000000BA
:1000F000000000006F030000000000006F0300001C
:1001000000000000000000000000000000000000EF
:1001100000000000000000000000000000000000DF
:1001200000000000000000000000000000000000CF
:1001300000000000000000000000000000000000BF
:1001400000000000000000000000000000000000AF
:10015000000000000000000000000000000000009F
:10016000000000000000000000000000000000008F
:10017000000000000000000000000000000000007F
:10018000000000000000000000000000000000006F
:10019000000000000000000000000000000000005F
:1001A000000000000000000000000000000000004F
:1001B000000000000000000000000000000000003F
:1001C000000000000000000000000000000000002F
:1001D000000000000000000000000000000000001F
:1001E000000000000000000000000000000000000F
:1001F00000000000000000000000000000000000FF
:10020000354936480A1A02D0072291438D463449AF
:1002100034480A1A06D00722914381F30988022242
:1002200082F3148830483149314A00F044F83148AB
:100230003149324A00F03FF831483249324A00F041
:100240003AF832483249334A00F035F832483349F7
:10025000334A00F030F833483349344A00F02BF881
:1002600033483449344A00F026F8344834490022EF
:1002700000F02CF833483449002200F027F83348C6
:100280003349091A082902DB002202604160314A21
:1002900090471F481F49884205D00268043003B4C4
:1002A000904703BCF7E700208646EC46002000217B
:1002B000294A9047FEE7884207D0521A05D00378B2
:1002C00001300B700131013AF9D17047884202D0F8
:1002D00002700130FAE770470000042000E00320BC
:1002E000000004200000042014C302008C00002041
:1002F00088020020D4030000D40300001E9A0200EC
:1003000014C302008C0000208C000020649B0200BB
:10031000649B0200649B0200649B0200649B0200D9
:10032000649B0200649B0200649B020011C30200F4
:1003300010C50200880200208802002088020020E8
:10034000663A0020683A0020683A0020683A0020A7
:10035000685A00209D03000091500000FEE7FEE770
:10036000FEE7FEE7FEE7FEE7FEE7FEE7FEE7FEE765
:10037000704700BF1048804710484FF0070188437E
:1003800085460F4880470F48016841F470010160BD
:10039000BFF34F8FBFF36F8FFFF732BF0A480B4990
:1003A0000B4A884207D0521A05D0037801300B70EF
:1003B0000131013AF9D170477103000000000420B7
:1003C0000952000088ED00E0D89A020000000020E9
:0403D0008C0000207D
:1003D400F0B595B01C46164608460D4602F0E8FAFC
:1003E4001A9B0D93CDE9086400242346082205A92D
:1003F40028460A948DF82C400C9402F0F6FA079BD8
:100404000293069B03939DF814308DF8114003F07A
:100414000302012A1DD1BDF81440059EC3F3C20393
:10042400C4F383148DF81030A20008230EA92846C3
:1004340002F0DBFAC6F3952608AB0093224602AB22
:100444000EA9304600F0ECFC284602F0B5FA15B0CF
:10045400F0BD022AF8D1BDF81640C3F3C203A409C3
:100464008DF810300827082C264628BF08263B465E
:1004740032460EA9284602F0B8FAA41B08AB02AA19
:1004840031460EA8374400F02FFD002CEBD1DBE7FA
:10049400014B01221A707047C90200207047000006
:1004A40070B50F4D06460FCD88B06C460FC495E865
:1004B4000F00002E84E80F004FF006030093094A52
:1004C40009484FF0805308BF00226946069302F0A2
:1004D400DDFC08B101F0A8FA044B1E7008B070BD31
:1004E400649B0200950400008C0000208802002018
:1004F40007B5044B0093044A4023FFF769FF03B098
:100504005DF804FB110500008902002038B50D4B8D
:100514000D4D002018700D4804782D5DD2B21C4694
:1005240065B1043003F004FE08B101F07DFA084B14
:100534001A7812B12378002BFBD038BD0C3003F0AD
:10054400E1FBF1E7C9020020C00B00208C00002071
:100554008802002008B50848084A0378D35C3BB1F8
:10056400043003F08FFD0020BDE80840FFF798BF7A
:100574000C3003F071FBF6E78C000020C00B002068
:100584000120FFF78DBF000008B5FFF7F9FF042134
:10059400034800F0ABFB034B01225A7108BD00BFB6
:1005A400B09A0200A0000020037813F0040216D0D1
:1005B40003F00303012B03D0022B09D00120704761
:1005C4000A6800880232C0F3831002440A60F5E727
:1005D4000B684288023303EB92130B60EEE710467C
:1005E400704700002DE9F04F044685B0851C0020BB
:1005F4000F46904601F0DAFC454806683E60D0E9B3
:100604000132134401339B1B824600F21C4600F561
:10061400836900F21447AB421AD30022B8F1000FE9
:100624006FD0052363F3070264F38912DAF800102C
:10063400DAF808300B4003330D444AF82320002035
:10064400CAF8005001F0B4FC012005B0BDE8F08FF9
:100654000121304601F0F4FC484601F00AFD384619
:1006640001F007FDDAF80400DAF808B0009000EAB7
:100674000B0003300AEB80006946FFF795FF009BEF
:1006840050BB0BEA03020AEB820203F1020CD268AC
:100694000192013303EA0B0B0AEB8B0B02F003020A
:1006A400012ACDF800C0DBF80C1022D0022A16D0A3
:1006B4008346384601F0E0FC10B1009BCAF80430D0
:1006C4005946304601F0BCFCDAE901231344DAF858
:1006D400002001339B1A9EE70BEA0300C9E7BDF82B
:1006E40006309B0903334FEA114B0CEB9303009341
:1006F400DFE7BDF80430C3F383134FEA114B6344BF
:10070400F5E7062363F3070264F39F528EE700BF05
:100714009C03002030B50A4B0A4A0B49D21AD2086E
:1007240000239A4201D1052006E031F823500468E1
:10073400A54202D10360002030BD0133F1E700BFC0
:10074400389A0200B09A0200000000202DE9F84F08
:10075400224B2348FF229A600022C3F81824C3E9DD
:100764000022C3F8142483F8202402F0DAF8814626
:1007740088B91C481C4E1D4CDFF87CA002F042FADC
:10078400A41BE4084D46A54208D10023184A194881
:100794001946A3421BD14846BDE8F88F4FF0000824
:1007A400474606EBC50BBD420AD0142256F8371053
:1007B400DBF8000004F094FF0028C8BF08F101082A
:1007C4000137BC42EFD12AF825800135DBE720F858
:1007D400231042F8041B0133DBE700BF9C03002015
:1007E400C09A0200A49B0200389A0200B09A020048
:1007F4003C000020020000200000002007B501900A
:1008040031B9019A064B53F8320003B05DF804FB8A
:1008140001A8FFF77FFF0028F3D00020F5E700BF11
:10082400389A0200094B013903EBC000032909D8A7
:10083400DFE801F00A0204060420704700797047DB
:10084400407970470020704702207047389A0200B0
:1008540030B5114C00EB400054F82150824007237E
:1008640083406A401A400D4B6A40C2F3821044F838
:10087400212003EB8101C2F3C203834238BF034644
:10088400C2F34220834202F0070238BF03469A4271
:1008940038BF1A464A8030BD3C00002000000020CA
:1008A400034BD3E90030C31A58425841704700BF84
:1008B4009C0300202DE9F04F85B0FFF7F1FF0646B9
:1008C400002840F016818C4DC5F81804BFF34F8FF3
:1008D4006868AC6800902040033005EB80006946EE
:1008E400FFF762FE009B18B1D5F81824002A66D0E1
:1008F40004EA0302991C013305EB8202234005EB51
:100904008303D268DB68029302F00303022B019293
:10091400009169D1BDF8063078489DF804604FEA2B
:10092400931ABAF1500FD14628BF4FF0500969F31A
:100934008F1309F10801ADF8063002F00AF8C6F386
:10094400C2068046002800F0BB8002F031F801A9FD
:1009540000230822404602F03EF8009924EA0107E9
:100964000137BF00B94538D95FFA89F997B3FFB2A7
:10097400A9EB0709214003315FFA89FBB946604FAF
:1009840005EB810108234A46404602F024F837B1BA
:1009940009F108035A463946404602F01CF8009B08
:1009A4000AF1030A03EB9A030093D5F81834002BD9
:1009B40050D1D5F81044DFF85C9107276FE02A681E
:1009C4009A4204D86A60304605B0BDE8F08F04EA64
:1009D400030081E74A49BB46D4E721400331082399
:1009E4004A4605EB8101D7E7012B69D1BDF80460C4
:1009F4004248C6F38311062928BF062161F38916EC
:100A040002318900ADF8046001F0A3FFC6F3C20609
:100A14008046002854D001F0CBFF0023082201A90E
:100A2400404601F0D8FF0027BDF80420C2F383122A
:100A3400BB00974203F10803B7D200994A1C214036
:100A44000331009205EB81010422404601F0C3FF0B
:100A54000137E9E7404601F0AFFFFFF721FF80F0DF
:100A64000100C6B2AFE7E3685A79B2B11B79BDF8A9
:100A7400081003EB430259F8211007FA02F3052E7C
:100A840003EA010323FA02F308BF0326B34204D3A3
:100A9400236841461B6820469847E3681C68002C7D
:100AA400E1D1404601F088FF204601F07FFAD5F8F5
:100AB40018340BB9009B6B60002001F079FACCE785
:100AC400D5F8104474B90F4B5B88012BC5D90E4B74
:100AD4000E480F49C01AC008000440F0020000F09C
:100AE40073F8BAE7236820469B689847E3681C6854
:100AF400E8E7002667E700BF9C030020C09A0200D5
:100B0400A80300201C000020389A0200709A0200FA
:100B1400B09B02003C0000202DE9F74F284C804692
:100B24000F46924601A9012218469B46D4F8089024
:100B3400FFF758FD80B3019D0026A91C5E4506EB16
:100B4400010233D100211F4801F044FA80F3100060
:100B54006A1C02EA090204EB8202000405EA0903A2
:100B6400033340EA1840D06014F8232068F3C50228
:100B740004F8232034F8232066F3891224F8232070
:100B840054F8232067F39F2244F8232002F0F8024C
:100B940042F0010204F8232094F820341BB1FFF73B
:100BA40089FE0028FBD103B0BDE8F08F09EA0202F8
:100BB40004EB82025AF82630D3600136BEE700BF48
:100BC4009C030020B807002000231A46FFF7A4BFA7
:100BD40007B50123019201AAFFF79EFF03B05DF858
:100BE40004FB07B5CDE9002302236A46FFF794FF0F
:100BF40003B05DF804FB1FB5CDE90123069B039305
:100C040001AA0323FFF788FF05B05DF804FB1FB5B5
:100C1400CDE90023069B0293079B03936A460423B2
:100C2400FFF77AFF05B05DF804FB00002DE9F347F8
:100C340080462C4CD01C8A46174601A90022800805
:100C4400A568FFF7CFFCC8B3DDF80490A66809F1E6
:100C54000200019001362840361AB6000330B7422C
:100C640004EB800034D83A46514604F059FD002183
:100C74001D4801F0AFF980F3100009F101032B4086
:100C840004EB83034FEA184242EA0042DA6005EAC1
:100C94000903033304EB830214F8231068F3C5013A
:100CA40004F82310518867F38F11518034F82320FE
:100CB40002F0380242F0020224F8232094F820348F
:100CC4001BB1FFF7F7FD0028FBD102B0BDE8F087A8
:100CD4003246514604F024FDBA1B0AEB060104F126
:100CE4000C00C2E79C030020B80700201C4A2DE931
:100CF400F843D2F81034074688460024194689B9C7
:100D0400F9680C71A3B9C2F810740B60154B164D39
:100D1400ED1AED08002603F10709AE420DD1204675
:100D2400BDE8F883C9680879A04212D00968E6E7EB
:100D3400DB681A680A601F60E8E719F83620FB6868
:100D44004245314628BF42461879FFF781FD0136F6
:100D5400E3E701340A2CD1D14FF0FF34DFE700BFC1
:100D64009C030020389A0200B09A0200037A052BF3
:100D740010B50C460FD0437A23B1084A08492046DF
:100D840001F0D7F90749204601F0D3F92046BDE820
:100D9400104001F0C3B9002AF8D0F3E70B9C02001D
:100DA400109C0200309C0200C38873B504460D46B3
:100DB40033B1144A00921449144A284601F0B9F98F
:100DC400217A05291CD0637A4BB1A088FFF72AFD4C
:100DD4000F4B104953F82020284601F0AAF9227A33
:100DE4000D4BA08853F822600021FFF707FD0B4943
:100DF40003463246284602B0BDE8704001F099B976
:100E040002B070BD0B9C02001B9C0200139C0200EC
:100E1400D89B0200109C0200409C0200339C0200FC
:100E24002DE9F04385B01F460C9D002306460C4671
:100E3400904695F80C902B7329463846FFF7B4FF7B
:100E4400B8F1060F09D8DFE808F00412181F283398
:100E540040003146284601F06CF900222946384604
:100E6400FFF784FF85F80C9005B0BDE8F083226895
:100E74003146284601F05DF9EFE7D4E90023314615
:100E8400284601F056F9E8E7A36800933146D4E90F
:100E94000023284601F04DF9DFE7E3680193A368D6
:100EA40000933146D4E90023284601F042F9D4E7FF
:100EB40023690293E3680193A36800933146D4E95C
:100EC4000023284601F035F9C7E7636903932369D2
:100ED4000293E3680193A36800933146D4E90023A5
:100EE400284601F026F9B8E708292DE9F84F80468D
:100EF4000E4617461C463AD8002593F80C901D73ED
:100F040019461046FFF750FFDFF884A0DFF884B0DD
:100F1400AE422ED918F805205946204601F009F9A9
:100F24000135082DF4D11849DFF86CB0204601F0E2
:100F340000F94FF0000A564520D918F80A507E2DC2
:100F440003D8284604F058FB00B92E252A465946F2
:100F5400204601F0EEF80AF1010ABAF1080FEAD1CD
:100F6400012221463846FFF701FF84F80C90BDE8C2
:100F7400F88F5146204601F0DCF8D1E703492046BA
:100F840001F0D7F8E7E700BF069C0200049C0200CA
:100F9400029C0200FC9B0200089C0200074B1B5CA5
:100FA4001F2B8ABF064A4FF0A04203F01F03D2F85A
:100FB4000405D840C04300F001007047A99C02001A
:100FC40000030050074B1B5C1F2B86BF03F01F035D
:100FD40005494FF0A041012202FA03F3C1F80C3590
:100FE400704700BFA99C020000030050074B1B5C24
:100FF4001F2B86BF03F01F0305494FF0A0410122B8
:1010040002FA03F3C1F80835704700BFA99C020037
:101014000003005008B50020FFF7E8FF0120FFF7A8
:10102400E5FF0220FFF7E2FF0320BDE80840FFF7D9
:10103400DDBF08B50020FFF7C5FF0120FFF7C2FFA1
:101044000220FFF7BFFF0320BDE80840FFF7BABF47
:101054000A4B185C1F288ABF094B4FF0A04300F0CD
:101064001F00D3F804250121814021EA02000A402F
:10107400C3F80805C3F80C25704700BFA99C0200FB
:1010840000030050074B1B5C1F2B8ABF064A4FF01E
:10109400A04203F01F03D2F81005D840C04300F06B
:1010A40001007047A59C0200000300500B2809D0E2
:1010B4000C2809D0182809D019280CBF03204FF098
:1010C400FF307047002070470120704702207047AE
:1010D400C20710B504460CD54FF0A0430322C3F851
:1010E4003427C3F83827C3F83C27C3F84027FFF751
:1010F40091FFA3070AD54FF0A0430C22C3F82C2775
:10110400C3F83027C3F86027C3F8642710BD000074
:1011140010B50D49A1F50E72914201D800200FE0DF
:101124008B1ADB1003EBD3735B1002EBC30452F88E
:101134003330834205DC02DA04F10802ECE760682C
:1011440010BD2146E8E700BF44A4020008B5FFF73C
:10115400DFFF024B002808BF184608BDAD9C020003
:1011640007B5002301938DF803300DF1030001F05E
:1011740041FE9DF80330032BF7D904210DEB010048
:1011840001F042FE18B9019803B05DF804FB002099
:10119400FAE708B500F0A6FA00F0A4F8002001F080
:1011A400F9FD10B100F0F4F8FCE7FFF7D9FF04F003
:1011B40091FA01F0A7FE10B900F0EAF8FCE7BDE8E7
:1011C40008400FF077B801F01BBC08B500F0E0F858
:1011D400FCE762B6704772B67047FFF7C1BF08B547
:1011E4000FF078F84FF47053584308BD38B50D46E6
:1011F40014465AB151B148B101F0C8FE29462046FF
:1012040001F09AFE10B900F0C3F8FCE738BDEFF323
:101214000580003018BF0120704700004FF0805354
:1012240007B51A6E596E064B02F0FF021343CDE95F
:1012340000130822694604F073FA03B05DF804FB56
:101244000036CEF40048704758080020704708B5AF
:1012540007F008FA437B1BB1BDE8084001F0E6BB88
:1012640008BD000008B524F0A7FC022802D0002025
:1012740005F028FB01F0AEFD0748084A0378D35C6B
:1012840033B1043002F0FEFEBDE8084026F0CABFC8
:101294000C3002F0E1FCF7E78C000020C00B0020CA
:1012A40008B5002001F076FD10B100F071F8FCE7FC
:1012B400FFF766F9BDE8084026F0A2BF10B5044662
:1012C40070B1FFF7CFFF204600F04CFA01F0AEFBFF
:1012D40000F066FA0446FFF7E3FF002C08BF012480
:1012E400204610BD08B50BF0ABFB48B9054B1A7886
:1012F400054B1B78134303D0BDE808400BF0A6BB95
:1013040008BD00BFD5010020D80100202DE9F84315
:1013140007460E460BF094FB58B1184C184BDFF8F7
:101324006890DFF86880E41AE408240444F00304B5
:101334000EB9BDE8F883D9F80000C0F10805B5423C
:10134400A8BF35462A463946404404F0E9F9D9F89D
:1013540000202A44082AC9F800202F44A6EB0506D9
:10136400E6D1084B5B88022B03D941462046FFF7A0
:101374005DFC0023C9F80030DAE700BFA89A020038
:10138400389A020038000020A40800209C0800209D
:1013940010B50C4C226882B10B4B5B88022B0AD926
:1013A4000A480B4B0B49C01AC008000492B240F023
:1013B4000300FFF73BFC00232360BDE81040FFF768
:1013C40079BA00BFA408002038000020A89A0200BF
:1013D400389A02009C0800204FF0102358694FF0FF
:1013E4008053411C1A695B6908BF03FB02F0704714
:1013F4000378022B01D80BF037BB704710B5FFF709
:10140400EBFF0A4C2061FFF7E7FF094B0949A0F500
:101414004040E06000222046C3F8082101F042F871
:1014240018B1BDE81040FFF7D0BE10BD7800002011
:10143400A808002050A602004FF480407047022004
:10144400704708B513460A4631B143B10146184600
:1014540004F066F9002008BD6FF00A00FBE76FF0A6
:101464000B00F8E70128F8B507460C4616461D465A
:1014740012D80B44B3F5804F11D29AB1ADB1FFF736
:10148400ABFFA4F5404101EB873101442A463046C5
:1014940004F046F90020F8BD6FF03800FBE76FF068
:1014A4001600F8E76FF00B00F5E76FF00C00F2E7B9
:1014B4000128F7B507460C4616461D4626D80B44A8
:1014C400B3F5804F25D23AB3AB0828D0FFF784FF99
:1014D400A4F5404404EB873404440BF0CDFA0746EA
:1014E4000028FAD10BF0B8FA214600972B46324671
:1014F4000C4801F013F804460BF0BEFA0028FBD1A7
:10150400201C18BF0120404203B0F0BD6FF038002A
:10151400FAE76FF01600F7E76FF00B00F4E76FF0EF
:101524000C00F1E77800002001282DE9F04106467F
:1015340026D8FFF751FF00EB8630A0F54044DFF8D2
:101544004C8004F580470BF097FA05460028FAD141
:101554000BF082FA2B4601222146404601F09EF808
:1015640088B90BF089FA05460028FAD104F58054AD
:10157400A742E8D130460BF087FA2846BDE8F0814F
:101584006FF03800FAE74FF0FF30F7E778000020FB
:1015940010B5084CD4F8083153B19BB22246D4F8A4
:1015A400041194F80001FFF783FF0023C4F8083105
:1015B40010BD00BFA80800202DE9F8431C4C1E46AE
:1015C400D4F8083181460F4690466BB194F8002157
:1015D400824207D1D4F804211A44914202D1B3F5CE
:1015E400807F01D1FFF7D4FFD4F8080118B984F83B
:1015F4000091C4F80471C0F58075B54234BFADB232
:1016040035464DB12A464146204404F089F8D4F8C1
:1016140008312B44C4F80831761BB6B216B93046EB
:10162400BDE8F883FFF7B4FF2F44A844DCE700BF0C
:10163400A808002007B50C4B18680090FFF7CCFEF3
:101644000422A0F580410DEB020004F069F80422A5
:1016540069460DEB020003F0D4FFB0FA80F04009B4
:1016640003B05DF804FB00BF4AA4020070B506464F
:101674000D461446FFF7B0FEA4F57F543C3C3246B9
:1016840029462044BDE87040FFF7DBBE00487047A0
:1016940050A4020002490022C0E90012704700BFB2
:1016A400040003067047B0F5A27F01D10BF0EEB938
:1016B4007047000010B5074C2378012B09D1FFF7C0
:1016C400E5FF02F073F8FFF7E1FF02F07BF8002377
:1016D400237010BDCC090020014B1878704700BF5F
:1016E400CC0900201FB502A8FFF7D4FFFFF7CEFFF7
:1016F400104A02A901F0E4FF08B1FFF766FDFFF705
:10170400C5FF0368D3F81045FFF7C0FFE2B24FF4FA
:101714007031012421FA02F202232146009402F0DE
:101724009CF8FFF7B3FF02F033F8034B1C7004B0CE
:1017340010BD00BFAB160000CC09002008B5084B53
:101744001B780BB9FFF7CEFFFFF7A0FF02F060F89C
:1017540028B9FFF79BFFBDE8084002F019B808BD9F
:10176400CC09002010B5044628F018F8094B18607D
:1017740074B1094B094A18604FF47A706043002130
:101784005860BDE8104018469A60D96028F02CB81B
:1017940010BD00BFB4090020B8090020A91600003C
:1017A40008B527F0FBFF054B1B68C3F579730333BA
:1017B40018444FF47A73B0FBF3F008BDB409002069
:1017C4002DE9F04F394E87B04FF00009384B1B78A4
:1017D4005FFA89F5AB4202D807B0BDE8F08F354B0C
:1017E400D3F800A01AF835000124D6E9001EA0F1B0
:1017F4002002C0F1200304FA02F224FA03F3134393
:1018040004FA00FC009301EA0C030293009B0EEA25
:1018140003030393DDE9022313430AEBC50B41D011
:10182400009B21EA0C012EEA0303C6E9001301F030
:10183400C3FD1AF835502049A5F12002C5F1200353
:1018440004FA02F224FA03F31343D1E900C2AC40D0
:10185400134004EA0C0105930024C3B2CDE900341B
:10186400009A0491C5F12003A5F1200122FA03F3A3
:1018740002FA01F848EA03081346AB401F46DDE9C3
:101884000434444508BFBB420CD1DBF804304BB1EF
:101894009BF801104A1E51425141081A41424141EC
:1018A4002846984709F1010990E700BF000A002083
:1018B400CD090020080A0020F80900202DE9F04194
:1018C4008046204800F050FBD0BB0125A8F120043D
:1018D400C8F1200325FA03F305FA04F41C431A4B58
:1018E400D3E9001205FA08F501EA050602EA04073D
:1018F40056EA07001E461DD1404601F05DFD134B1C
:10190400D3E9001288B129432243C3E90012D6E97E
:1019140000231C430E4B0B4819681543C6E90054B9
:101924000022BDE8F04100F0DDBA21EA050122EA17
:101934000402EAE721EA050522EA0404C3E90054A3
:10194400BDE8F081D4090020000A0020F809002035
:10195400D0090020042A2DE9F34105460C46164619
:101964003AD901F059FCD8B11C4B1D491D601D4BDF
:10197400DFF884801C701C4B00221E600023C1E928
:1019840000231A49C1E90023013CE4B200260327DD
:10199400FF2C0CD1164A1748002100F091FA03E0FD
:1019A40001F002FC0028DFD002B0BDE8F08123B2D0
:1019B40005EBC30201A992788DF8052015F83300D0
:1019C4008DF8066042468DF8047001F02FFC013C4E
:1019D400E4B20028DCD0E7E70720E5E7080A0020A6
:1019E400F8090020CD090020D0090020000A0020B9
:1019F400C517000058A40200C118000070B5084DB6
:101A0400084E00242B789C4201D3002070BD33681B
:101A1400012113F8340001F085FC0134F2E700BF22
:101A2400CD090020080A00201FB50021039001AA57
:101A340044F20100CDE9011105F062F905B05DF849
:101A440004FB0000094A537891780133DBB29942D0
:101A540008BF0023117899421FBF037050781823E0
:101A640003FB002014BF0430002070470C0A002040
:101A740037B5044600200D4600F098FA0DF1070032
:101A8400FFF7E0FF90B10570094B9DF80720446013
:101A94005A700024002000F08BFA24B9054B4FF44F
:101AA4008012C3F80021204603B030BD0424F1E7BE
:101AB4000C0A002000E100E0024B4FF43C6043F0CC
:101AC4000103184760A4020038B50C4B0C4C4FF4CA
:101AD4000032C3F8802001254FF48033C4F8483322
:101AE400C4F808336560FFF7E7FF064BA5600024E0
:101AF4001C60FFF7E1FF044B1C7038BD00E100E0FF
:101B040000100140280B0020190B0020F8B51F4BD2
:101B14001F491B680025C1F84051C1F84451C1F860
:101B24004851C1F84C51C1F80051C1F804514BB3AC
:101B3400D1F8044517490968641A24F07F442F46F4
:101B44001A68A24209D8A41A15441A7CDE691AB18B
:101B54001F74D3E905209047AEB90F4A0F4B117893
:101B64001B788B4205D10133DBB2022B08BF002363
:101B7400137012780A4B43F822500A4B4FF4801228
:101B8400C3F80021F8BD3346DAE700BF2C0B002070
:101B940000100140280B0020250B0020240B0020FE
:101BA4001C0B002000E100E02DE9F04FA14AA249FE
:101BB40013780978A14D994285B03CD00133DBB24A
:101BC400022B08BF002313709D4912789D4B0F68A8
:101BD40053F822003B1823F07F4300220B602B684C
:101BE40016461446944613B942B12B6006E01968B0
:101BF40081420ED902B12B60091A196001272B68A2
:101C0400DFF848A201934FF00008BEB9DFF844B2F0
:101C140066E0401A0C44D968C3F800C0D3F81CE04D
:101C240031B13A1922F07F42C3E90121DE611E4637
:101C340001227346D7E700263746E0E73446F669C3
:101C44007F4A63681268DFF810C2A068991A21F00D
:101C54007F41614500F2A680014421600122227483
:101C64002A680023C4E90133E361002A40F0A38019
:101C74002C60CAE75A1C9BF80210D2B291428BF82E
:101C8400002004BF00228BF80020182202FB03B3BB
:101C94001A799C68022A1CD0032A12D0012A1FD167
:101CA400207CE8B9D3E90312A2605A69E2609A6918
:101CB400654BA2611B78002B0CBF0B460346636087
:101CC400BEE700222B681146002B67D142B12B607E
:101CD40006E029680A468946002A5AD1002323745B
:101CE4009BF800309BF801209A42C3D12B68B8F1CD
:101CF400000F04D1019A9A4201D1002F43D0002B46
:101D040073D0D3F800A0514D4D4BD5F804751C6821
:101D1400DFF848813E1B98F8003026F07F460336F2
:101D24009BB94FF48033C5F84433C5F80433484BAA
:101D34004FF400324FF00109C3F880211A60C5F84E
:101D44000090FFF7B9FE88F80090B2452CBF5444C8
:101D5400A41924F07F44C5F84045D5F80435DB1BAD
:101D640023F07F43E41B033324F07F44A3420AD9C6
:101D7400D5F80435C5F84035FFF79EFE344B4FF4D3
:101D84000032C3F80021304B00221A7005B0BDE8C0
:101D9400F08F94422CD09146D2699DE719740122A8
:101DA400DB6991E7D31A23F07F43834234BFC31A1C
:101DB4000023236052E721681368994213D8591A03
:101DC4001160E26154E7091AD8691A4638B103462A
:101DD40018688842F7D3401A1860184613462160E1
:101DE400E061DC6111E71346F2E7FFF76DFECAE735
:101DF4004C4511D1CB692B6073B9DFF844E0012065
:101E0400CDE90212CAF80800CEF800300E4B187063
:101E1400FFF752FEDDE902121368D269C9F81C20EB
:101E240012B11068034413602B68994218BF4FF035
:101E3400010853E7240B0020250B00202C0B002065
:101E4400280B00201C0B0020180B00200010014060
:101E540000E100E00C0A0020FEFF7F00190B0020C7
:101E640008B5FFF731FE104B00200B2218809A7042
:101E74000E4B18600E4B18700E4B18700E4B4FF42F
:101E84008012C021C3F8802183F814131A6002F170
:101E94008042A2F56F22C2F8080583F81113074B9C
:101EA400D2F804251A6008BD0C0A00202C0B00206F
:101EB400240B0020250B002000E100E0280B00206B
:101EC400074B9B784BB132B128B10368187C20B919
:101ED40059745A617047072070470820704700BF43
:101EE4000C0A00202DE9F3411C4EB37804460D463C
:101EF40017468BB380B304292CD9436963B3437C5D
:101F04000020012B0CBF88464FF0000800F04EF86B
:101F14000DF10700FFF796FDD0B101230370104BBC
:101F24004460D3F80435C0E90487C0E902359DF85C
:101F3400073073700024002000F03AF824B9094BEC
:101F44004FF48012C3F80021204602B0BDE8F081AE
:101F54000424F0E70724F7E70824F5E70C0A002037
:101F64000010014000E100E0064A92783AB130B135
:101F7400426922B1002202740221FFF779BD0820D0
:101F8400704700BF0C0A002072B6024A136801337E
:101F940013607047300B0020034A1368013B136041
:101FA40003B962B6704700BF300B0020FFF7ECBFE7
:101FB400FFF7F2BF90B200F000B807B5ADF800002B
:101FC40001916A46002144F2020004F099FE03B034
:101FD4005DF804FB50E8002F0B4640E8003C9CF001
:101FE400000FF7D11046704750E8002F42EA010372
:101FF40040E8003C9CF0000FF6D11046704750E8D2
:10200400003F43EA010240E8002C9CF0000FF6D1A7
:102014001046704750E8002F02EA010340E8003CF4
:102024009CF0000FF6D11046704750E8003F03EAD9
:10203400010240E8002C9CF0000FF6D110467047D6
:1020440050E8003F03EB010240E8002C9CF0000F35
:10205400F6D11046704750E8003FA3EB010240E878
:10206400002C9CF0000FF6D1104670470121FFF7B9
:10207400BBBF0121FFF7C3BF0021FFF7CBBF002186
:10208400FFF7D3BF10B590B1D0E9012301689B1AC3
:10209400DBB20A60013BDBB2FF2B026802D10020F5
:1020A400107110BD11684C1C14600B70F2E70E2007
:1020B400F7E738B504460020FFF778FF2268636825
:1020C4001168994213D9481E106011F8015CE36845
:1020D400A18A01FB0535A36811791B1ADBB2994269
:1020E40000D213710020FFF763FF284638BD002596
:1020F400F8E738B5054600200C46FFF757FF2A6875
:102104001368591C1160E968641AA98AB4FBF1F4D4
:102114001C700020BDE83840FFF74ABF826810B544
:1021240004462AB143690168006998470023A36003
:1021340010BD0EB403B5039921B104AB01AA0193F8
:1021440000F074F802B05DF804EB03B070470A299C
:1021540038B504460D4602D10D21FFF7F8FFA368F8
:102164002268591CA160D554D4E901329A4204D39F
:102174002046BDE83840FFF7D1BF38BD2DE9F84F00
:102184009946DDE90A431746824688460A460126EF
:10219400BA420FD24E4538BF4E4613F0010B01D15F
:1021A40064B900240125B9F1010F1AD909F1FF39E5
:1021B4007D43F8E7B2FBF7F20136E9E79B070ED55A
:1021C400B9F1000F0CBF30252025A642EAD2013C0C
:1021D40029465046FFF7BBFF002CF6D1E1E7202546
:1021E400F3E7B8FBF5F39F42E2D9DFF83C90B8FB84
:1021F400F5F3504619F8031005FB1388FFF7A7FF02
:10220400B5FBF7F3BD4207D2BBF1000F02D00CB10E
:10221400A64203D3BDE8F88F1D46E8E720215046C7
:10222400013CFFF794FFF2E766A402002DE9F74FA3
:10223400054617468846002900F0308118F8011B2E
:1022440049B92B7B002B00F02981284603B0BDE857
:10225400F04FFFF763BF252940F0C080002698F8AF
:1022640000302D2B424608F1010823D0302B24D016
:102274002B2B25D000242A2B02F1010123D13B680A
:102284001A1D1B683A601C440A4613782E2B26D16B
:1022940001324FF00009104610F8011BA1F1300C77
:1022A400BCF1090F1DD80A2303FB0913A3F130095C
:1022B4000246F0E746F00106D1E746F00206CEE713
:1022C40046F00406CBE711F8013CA3F130000928DD
:1022D400DBD80A2202FB0434303C0A46CBE74FF039
:1022E400000912F8011B01F0FB0068289046F8D0A1
:1022F40069290ED04AD8582964D006D825296DD02A
:1023040098F80030002B99D19BE7632962D06429A7
:10231400F6D13A68D2F800A0111D8AEAEA7239604F
:10232400A2EBEA724FF0010B092A5BDCCB4538BF04
:10233400CB462CB1BAF1000F01DB720700D5013C8A
:10234400B30702D5B9F1000F04D0F00702D4002C72
:102354004ED10024BAF1000F52DACAF1000A2D213D
:102364002846FFF7F4FE06F00302022A05D1B9F16C
:10237400000F02D1002C47D10024CDE900464B4682
:102384000A2251462846FFF7F9FEB9E773294CD0D3
:1023940014D87029B4D13B681A1D3A6030212846FC
:1023A4001C68FFF7D4FE78212846FFF7D0FE0022F0
:1023B4000823CDE9003221461022E3E775292BD00A
:1023C40078299DD139680A1D3A60CDE900464B460B
:1023D400102228E03B681A1D19783A602846FFF756
:1023E400B6FE8DE70A230BF1010BB2FBF3F29BE778
:1023F400A345AFD220212846013CFFF7A8FEA6E75B
:102404007107B0D52B21ABE7A345B6D230212846BE
:10241400013CFFF79CFEADE73968CDE900460A1D93
:102424003A604B460A220968ACE73B681A1D3A60D9
:1024340016F00106D3F800A020D1BAF1000F03D0A2
:10244400504603F0C9F90646B44200D9C4B90AF1AA
:10245400FF3A1EE028460136FFF779FE1AF8061007
:102464000029F7D1A642BFF44BAF002C3FF448AF8C
:1024740020212846013CFFF76AFEF3E70026EDE73A
:1024840020212846013CFFF762FEDDE72846FFF7DE
:102494005EFE1AF8011F0029F8D131E703B0BDE848
:1024A400F08F000007B50B46A0B9154B5B886BB1E4
:1024B400144B1548154AC01A0E23C0080093144B38
:1024C4000004144940F00100FEF795FB0E2003B010
:1024D4005DF804FB6BB90A4B5B88002BF6D0094B03
:1024E40009480D4AC01AC0080E2300930004084B83
:1024F400E7E703601B68114603B05DF804EB184777
:1025040028000020389A0200889A020023A50200BD
:1025140076A4020028A502009FA502002DE9F3413C
:102524009646B0B9504B5B88002B00F095804F4B1A
:102534004F48504AC01AC0080E244F4B0094000460
:102544004E4940F00100FEF756FB204602B0BDE8BC
:10255400F0816AB9444B5B88002B7DD0434B4448DF
:10256400474AC01AC0080E2400040094424BE7E70F
:10257400D0F800C0BCF1000F0DD13B4B5B88002BA1
:102584006CD03A4B3A483F4AC01AC00808240004A9
:102594000094394BD4E76BB9334B5B88002B5FD085
:1025A400324B3348384AC01AC00809240004009446
:1025B400314BC5E74768D7F80480B3FBF8F708FB4D
:1025C40017376FB1284B5B88002B49D0274B28481D
:1025D4002E4AC01AC008092400040094264BAFE711
:1025E4008F070DD0204B5B88002B3BD01F4B20481E
:1025F400274AC01AC0081024000400941E4B9FE709
:1026040012F0030F0CD0184B5B885BB3174B1848C0
:10261400204AC01AC008102400040094164B8FE707
:10262400C768B9420BD34C1E05691C44AC4206D89A
:10263400DCF80C40A44602B0BDE8F04160470A4B08
:102644005B887BB1094B0A48134AC01AC00810249E
:1026540000040094084B73E70E2476E7082474E71B
:10266400092472E7102470E728000020389A020039
:10267400889A020023A5020088A4020028A502006B
:10268400A5A5020099A5020058A50200ABA5020069
:10269400D5A50200EDA5020010A60200F7B5A0B969
:1026A400374B5B88002B63D0364B3748374AC01A08
:1026B400C0080E24364B00940004364940F0010053
:1026C400FEF799FA204603B0F0BDD0F800C0BCF183
:1026D400000F0DD12A4B5B88002B4BD0294B2A4885
:1026E4002D4AC01AC008082400040094284BE4E7CB
:1026F4006AB9234B5B88002B3ED0224B2248274AE1
:10270400C01AC008092400040094214BD5E7476887
:10271400D7F800E00EF1FF370F420CD0184B5B885E
:1027240063B3184B18481E4AC01AC008102400048A
:102734000094174BC1E7C768B9420CD34C1E056916
:102744000EFB0244AC4206D8DCF81040A44603B0A9
:10275400BDE8F04060470A4B5B887BB1094B0A48EF
:10276400104AC01AC008102400040094084BA4E7BF
:102774000E24A7E70824A5E70924A3E71024A1E76A
:1027840028000020389A0200889A020023A502003B
:102794009BA4020028A5020099A5020058A50200E6
:1027A400AEA40200D4A40200014B43600020704791
:1027B40044A602000846704700207047024B186880
:1027C400003018BF01207047340B002008B50248C0
:1027D400FFF755FC002008BD340B002008B5104657
:1027E4001A4602F09DFF002008BD00002DE9F043C9
:1027F400814687B014480F4616469846FFF736FCC4
:102804000446F0B90546AE4215D10F48FFF737FC30
:10281400D9F808305BB102228DF800200022CDE9FE
:102824000127CDE90326CDF8148068469847204651
:1028340007B0BDE8F08307EB053000F0B7FB0135C6
:10284400E1E71124F3E700BF340B00202DE9F04148
:10285400804686B011480F4616461D46FFF706FC13
:102864000446C8B9AA083146384600F0B7FB0B48FD
:10287400FFF705FCD8F8083053B101228DF8002089
:102884000C9A0592CDE90147CDE90365684698475E
:10289400204606B0BDE8F0811124F9E7340B00208E
:1028A4002DE9F047B0F806904479D2F800A09DF8DD
:1028B400208009FB04F4043C06460AEB0300A04212
:1028C4000F4688BFA4EB030A191DC2F800A0B1FB90
:1028D400F9F509FB15114DB9A9EB0104544528BFBD
:1028E4005446BAF1000F04D1BDE8F0873668013DC3
:1028F400F1E704317B1970182246B8F1000F0ED0AD
:1029040001461846AAEB040A02F00AFFD145254401
:1029140036684C464FF0000128BF5446E1E719469B
:10292400F0E7FFF7AFBBF8B546790146721E0546DE
:10293400002393422D6803D30024A64202D8F8BD95
:102944000133F6E70F682846FFF7D3FB0134394615
:10295400F3E72DE9F843868ACD1C0746FFF7A9FB68
:10296400043E35440446B5FBF6F5F0B14FF48073EC
:10297400EDB28380C680013D076081464FF00008B8
:10298400A84512D23846FFF794FB064648B163794E
:102994000133637108F10108C9F80000076081463A
:1029A400EEE72046FFF7BFFF34462046BDE8F88334
:1029B40001210430FFF744BB10B501210446043063
:1029C400FFF749FB10F0FF0F04D12046BDE810408B
:1029D400FFF7A9BF10BD1FB503920022009203AAFE
:1029E400FFF75EFF05B05DF804FB1FB503920122FB
:1029F400009203AAFFF754FF05B05DF804FB000042
:102A0400064B10B500241C70054B1C60BFF35F8F90
:102A14000449054800F0FFF8204610BD400B002093
:102A2400440B002070A60200380B002008B50020DB
:102A3400FFF7BCFAF1EE103A23F09F03E1EE103AEF
:102A4400BFF35F8F054B4022C3F884210020FFF7BA
:102A5400AFFA20BF40BF20BF08BD00BF00E100E0C7
:102A6400026813685268934291BFD01A806801309B
:102A7400801888BFC01A70472DE9F84303681D68A1
:102A84005C68A54284BF836801331746884694BFB7
:102A9400641B5C1BC2684168BC42064605FB02110C
:102AA4000CD37A43404602F03BFEB3683D449D425A
:102AB40088BF002533681D60BDE8F88304FB02F974
:102AC4004A46404602F02CFEF26871683C1B6243A1
:102AD40008EB090002F024FE33681C60ECE703688D
:102AE40081681A685B688B4234BF01330023D31AB0
:102AF400584258417047F8B5044600200D46FFF788
:102B040055FA2046FFF7EBFF10B1237C002B3CD194
:102B14002268A66853685168B14234BF013100216C
:102B2400516030B11168A068814234BF0131002185
:102B34001160E2686068511E072920D8DFE801F0BF
:102B440004101F141F1F1F182A78C2542046FFF7B1
:102B540087FF23689A68824200D29860002415E0B7
:102B64002A8820F81320F1E72A6840F82320EDE7AB
:102B7400D5E9006700EBC300C0E90067E6E7294632
:102B840002FB030002F0CCFDE0E704240020FFF781
:102B94000FFA2046F8BD70B505460E46144682B1BC
:102BA4000020FFF703FA2846FFF75AFFA0420AD392
:102BB400224631462846FFF75FFF00240020FFF736
:102BC400F7F9204670BD0524F8E710B50446002047
:102BD400FFF7ECF920680C22002102F0CAFD002066
:102BE400BDE81040FFF7E4B910B504460020FFF734
:102BF400DDF92046FFF734FF04460020FFF7D8F93B
:102C0400204610BD836800225A609A60C3E90422FA
:102C1400DA601A6070470B684A684360934208BFE1
:102C24000023016008BF43607047000038B5074CBB
:102C3400051E04F1080318BF1C4623682BB11A684B
:102C440022605B6828469847F7E738BD500B0020A0
:102C540020B9054B01225A70FFF7E8BF012802D1C1
:102C6400014A9070F8E77047480B002038B5094CCA
:102C740023786BB908486360A3602361E36000F0C4
:102C8400CDF9054600F0D6F901232370284638BD56
:102C94008525FBE7480B0020552C000038B5134C64
:102CA400A378054603F0FF0073B115B16B680120EA
:102CB40098470020FFF77AF9E3680133E3600020C6
:102CC400BDE83840FFF774B9FFF770F925B1226900
:102CD40013463BB92A602561E368002BECD100F070
:102CE400BBF9E9E79D42F7D01B68F2E7480B0020E7
:102CF40038B5134C6378054603F0FF0073B115B182
:102D04006B68002098470020FFF750F9636801338F
:102D140063600020BDE83840FFF74AB9FFF746F981
:102D240025B1A26813463BB92A60A5606368002BED
:102D3400ECD100F0A3F9E9E79D42F7D01B68F2E774
:102D4400480B002038B5084C0020FFF72FF96368C2
:102D5400013B6360656815B900F0A2F96570002055
:102D6400BDE83840FFF724B9480B002007B58DF8BB
:102D740007000DF107010648FFF7BDFE0448FFF701
:102D8400AEFE08B100F06AFC03B05DF804FB00BFBE
:102D9400209A020038B50C4D2B7893B90B4B0C4993
:102DA400002808BF18460388284620F8013F00F091
:102DB40015FC044618B900F03FFC01232B70204693
:102DC40038BD8524FBE700BFAC0B00208BA60200B6
:102DD400712D000008B500F041FC00F047FC0348E9
:102DE400FFF7F3FE024B00221A7008BD209A02007E
:102DF400AC0B002010B504460248FFF7F5FE207026
:102E040010BD00BF209A020010B50A4601460448CE
:102E1400FFF7C1FE044600F00FFC204610BD00BFC2
:102E2400209A02001FB503788DF80030436801939F
:102E340083688DF80830C3680393054A054B6846D8
:102E440053F8213052F82110984705B05DF804FB7F
:102E5400B00B0020B80B00201FB503788DF80030AC
:102E64004368019383688DF80830C3680393054A67
:102E7400054B684653F8213052F82110984705B0A5
:102E84005DF804FBB00B0020B80B0020F0B5184B24
:102E94000778DFF86CE043F82720164B16460A69DA
:102EA40043F827204B7F0EF807300C4684460FCC9E
:102EB40089B06D460FC594E80F0085E80F001EF831
:102EC4000730049753B1002E0B4A694608BF3246B7
:102ED4000CF1040000F0FAFF09B0F0BD002E074A1F
:102EE400694608BF32460CF10C0000F0E1FDF3E73F
:102EF400B80B0020B00B0020292E00005D2E00002E
:102F0400C00B0020074A084B1360084A03F1100164
:102F14001160074A03F120011160064A0120C2F83A
:102F240004357047FC0B0020CC0B0020C80B00209C
:102F3400C40B002000E00040114B10B50446186893
:102F4400884202D0102202F0EBFB0E4B0022C3F8A1
:102F5400002101221A604FF08070D3F8002162B181
:102F64000022C3F80021084B1968A14203D01022A3
:102F7400204602F0D5FB012001E00138EDD110BD5F
:102F8400C80B002000E00040C40B0020024B0146A7
:102F94001022186802F0C4BBFC0B0020024AD2F8CD
:102FA4000034002BFBD0704700E001400A4908B50B
:102FB4000223C1F80435BFF36F8FBFF34F8FC1F8FD
:102FC4000805FFF7EBFF0023C1F80435BFF36F8F4B
:102FD400BFF34F8F08BD00BF00E001400E4B10B59A
:102FE4000124C3F80445BFF36F8FBFF34F8F01EB88
:102FF4008204401AA14208D1074B0022C3F80425D9
:10300400BFF36F8FBFF34F8F10BD431851F8042BDC
:103014001A60FFF7C3FFEDE700E00140044A1379AB
:1030240023B90121106091801846704785207047AC
:10303400000C0020074B1A68D2075FBFC02283F838
:10304400002301221A604FF080430122C3F818259F
:10305400704700BF00E100E0074B00221A6082B015
:103064001B680193019B4FF080430222C3F80423A1
:1030740001229A6002B0704704010040074B00220D
:103084001A6082B01B680193019B4FF080430122B8
:10309400C3F804231A6002B0704700BF0001004067
:1030A400074B01221A604FF08042D2F80C3403F02F
:1030B4000113B3F1011FF8D0024B00225A7170477B
:1030C40004000040000C0020154B07B51A687AB1C3
:1030D40000221A601B680093009B4FF0804301227A
:1030E400C3F808230F4B587910B95A711B689847D5
:1030F4000D4B1A6882B100221A601B680193019B70
:103104004FF080430222C3F80823064B1B680120BA
:1031140003B05DF804EB184703B05DF804FB00BF8F
:1031240000010040000C00200401004000F1804038
:1031340000F5C040002382B0036003680193019B43
:1031440002B0704703681F2B83BF03F01F030360A3
:1031540001484FF0A04070470003005007B50190AC
:1031640001A8FFF7EFFF019B00EB8300D0F80027D5
:1031740022F44032C0F80027D0F8003743EA014374
:10318400C0F8003703B05DF804FB0000054B4FF0B6
:10319400FF32072843F8202084BF1B1883F85820E7
:1031A400704700BF080C002010B5174C94F86A3023
:1031B40043BB04F130033021FF22013911F0FF0138
:1031C40003F8012BF9D1C8B2FFF7E0FF01310C2954
:1031D400F9D1062200210D4802F0CBFA0C4BC02293
:1031E40083F8062340221A604FF4BE70FFF79EFF57
:1031F400084B4FF00042C3F80423012384F86A30DB
:10320400002010BD0820FCE7080C00206C0C0020F6
:1032140000E100E000600040034B93F86A000030D6
:1032240018BF0120704700BF080C0020F7B53B4EC3
:103234003318054693F93030002B6CDA8B78C3F3DE
:103244004003002B0BBF082400240C2008208442D8
:1032540002D1042003B0F0BD56F82470013743D1E5
:10326400701946F8242080F8304013B9331983F8D4
:1032740058508B785A0717D4D80737D501A8019529
:10328400FFF760FF019B00EB8300D0F8003723F0C9
:103294000203C0F800372248EA0805F007070123B3
:1032A400BB40875C3B43835488780A7810F0020063
:1032B40028D0A40004F1804404F5C0442D02D4F8BD
:1032C400103523F44F3323F44073C4F8103512043B
:1032D400D4F8103505F47C5502F4403215431D43EF
:1032E400C4F810550020B5E70134B0E701A84A78C6
:1032F4000195FFF727FF019B03F5E073920040F867
:103304002320C8E7083C344494F8605045EA82120C
:1033140084F860209EE708209CE700BF080C00208A
:103324006C0C002073B5224C2518064695F9302004
:10333400072A19DD224492F858309B09032B0FD138
:10334400019001A8FFF7FEFE019AD0F81035D34092
:10335400DB0707D402213046FFF700FF02B070BD3F
:10336400012BF7D00321F6E7D3B2072BF6D893004D
:1033740003F1804303F5C043D3F8100540F0010086
:10338400C3F8100502F14000800080B2FFF7CEFEC2
:103394000029E3D095F9303054F82330002BDDD0E8
:1033A400012303FA02F2034BC3F80423D6E700BF58
:1033B400080C00200060004007B5019001A8FFF749
:1033C400C1FE019BD0F81005D84000F0010003B005
:1033D4005DF804FB2DE9F04F002489B0CDE90244E7
:1033E400624D4FF48072012102F1804303F5C04322
:1033F40090B21B68012B06D1D5F804330B4202D0DE
:10340400FFF794FE0C430432B2F5907F4FEA41017A
:10341400EAD1574B1B68012B0ED14FF4BE70FFF756
:1034240085FE4FF0A04344F00044D3F810350293D6
:10343400504BD3F81035039314F0FF0F1AD04E4FAE
:1034440000250126344210D0AB0003F1804303F57C
:10345400C043D3F81005D3F8101557F8253023B11D
:10346400C1F30141C0F3052098470135082D4FEA07
:103474004606E7D1002C75DA0DF1100800230493F9
:10348400C8F804304FF0FF33CDE90633DFF8E8A085
:10349400DFF8E89000273D4619F9014B631C48D03A
:1034A400E4B2012324F0C00604F0070203FA02F296
:1034B400F00808AB191811F8083C134239D00AEB8C
:1034C4000603A40993F930305AF823B0BBF1000F76
:1034D40008D1032C2DD118F800C04CEA020C08F8CE
:1034E40000C001E0032CF6D001A80196FFF72AFEE4
:1034F400019B11F8181C03F5E07C114250F82C00D4
:10350400C0F3014005D0022813D1032C0BD121466E
:1035140004E003280DD1032C05D102213046FFF726
:103524001DFE0135EDB2BBF1000F02D0214630463D
:10353400D8470137042FAFD1A5B14FF0A04302996A
:10354400D3F8102503F540739142D3F8103502D116
:103554000399994206D002920393049A059B06921A
:10356400079395E709B0BDE8F08F00BF0060004005
:103574007C61004000030050080C0020680C00200F
:10358400014B1B68184700BF740C002038B50B4B67
:1035940098420D4601D0002038BD0020FEF706FDFC
:1035A400074B1C7914B901221D601A710020FEF723
:1035B400FFFC002CEFD01120EEE700BF00200040FC
:1035C400740C0020034B984201BF034B00221A6085
:1035D4001A71704700200040740C002010B5124C82
:1035E4002278FAB9114B1960037813F0010F104BCC
:1035F4001EBFD3F8042542F00102C3F80425D3F812
:10360400002222F00102C3F800224378094A5B0138
:10361400DBB282F80D334FF400531360012323709F
:10362400002010BD8520FCE7800C00207C0C0020CD
:1036340000D0004000E100E0064B00221A6082B096
:103644001B680193019B044B0122C3F804231A60F5
:1036540002B0704700D1004000D00040024A01236C
:10366400C2F808335360704700D00040064A012373
:10367400C2F808335360054B4FF40052C3F880205E
:10368400034B00221A70704700D0004000E100E0B4
:10369400800C0020074B00221A6082B01B68019343
:1036A400019B054BD3F80805044B1B68C0B202B05C
:1036B400184700BF00D1004000D000407C0C00201F
:1036C400F7B506792F4D0C237343EF183C7A002C81
:1036D40055D1EA504B687B60477903682246D0B2E3
:1036E400874243D81A0B54B2C878002CA8BF04F1FF
:1036F4006047D2B2BABF02F00F0C234F07F56147FF
:103704004FEA4010C0B2B4BF07F80C0087F80003BA
:103714006409012002F01F021C4F00FA02F247F86C
:1037240024204A78D3F8044502F0030224F0030469
:103734002243C3F80425D3F808458A7824F0030407
:1037440002F003022243C3F80825D3F810450A788F
:1037540024F00F0402F00F022243C3F810250C23B7
:1037640003FB06552872002003B0F0BD900000F55D
:10377400A07001321C50185801900198AFE708203E
:10378400F2E700BF840C002014ED00E000E100E04B
:10379400036801221A600379034A0C2101FB032305
:1037A40002221A72704700BF840C00200368044987
:1037B40001221A6103790C2000FB03131A7270476B
:1037C400840C00200268110B38B54BB201245B094C
:1037D40001F01F0104FA01F120330B4C44F82310CB
:1037E4000546D2F8003200244FF0FF33C2F80042FD
:1037F400C2F80833FFF7DAFF2B79044A0C2101FBE6
:1038040003231C7238BD00BF00E100E0840C0020DB
:103814000379044A0C2101FB0323187A831E5842BE
:1038240058417047840C002037B54FF480348C40E5
:1038340000687BB101F150039B000025C550C358BB
:103844000193019BC0F8044301F5A87140F82120BD
:1038540003B030BDC0F80843F6E770B4046840F222
:103864000116D4F800528E4025EA0605C4F8005229
:10387400D4F800522B43C4F800329DF80C3070BCCD
:10388400FFF7D2BF2DE9F341104C114F114E002523
:103894004FF48038236804F5C04080B26BB1D7F888
:1038A400043308FA05F21A4207D000232360236880
:1038B4000193019BD6E9003198470135062D04F1A7
:1038C4000404E7D102B0BDE8F08100BF40A101408B
:1038D40000A00140840C00200023435082B04358D0
:1038E4000193019B02B070470A4610B54FF48E71E4
:1038F400FFF7F2FF136A9168C95C136A013313621C
:10390400C0F81C1510BD8B690A4610B54FF48471BC
:1039140023B9FFF7E1FFD0F8183510BDFFF7DCFF3E
:10392400536AD168D0F81805C854536A01335362F6
:10393400F3E700001FB501238DF80030044BCDE9F7
:103944000110D3E900126846904705B05DF804FB06
:10395400900C002030B54C4AD2F8043313F4007FA5
:1039640085B015464FD0D2F82431002B4BD04FF4FC
:1039740092711046FFF7B0FF4FF40173C2F8083399
:10398400424B93F8291009B9012151603E490222A2
:103994008DF80020D1F88024C1F8802403929A691C
:1039A4000292DA6801920022C3E906226846D3E94A
:1039B400001290473448D0F81C315BB133490A6A8D
:1039C4004B699A420A464BD291F82830002B47D1D2
:1039D400FFF78AFF2C4AD2F8443193B14FF4A27115
:1039E4001046FFF779FF294B93F8291009B10121FB
:1039F40011609A692AB100229A61586AD968FFF75E
:103A040099FF05B030BDD5F804335B07D2D5D5F89E
:103A14000831002BCED01D4C1B482146FFF773FF05
:103A2400636AA2699A422346C4D1E269E1684AB151
:103A34002369E3600023606AA261E3616362FFF7C4
:103A440079FFB7E794F829200AB901226A600E4A7F
:103A54004FF40170C2F8080300229A61586AEEE735
:103A64004FF48E710848FFF737FF51690029B1D030
:103A74000023029191688DF80030019153616846EA
:103A8400D2E900139847A5E700200040900C0020DD
:103A94001F2886BF00F01F00044B4FF0A04300F521
:103AA400E070022243F82020704700BF000300505A
:103AB4002DE9F843624F047991462C2202FB0472EB
:103AC400064692F82A200D46002A40F0B3805D494C
:103AD4000068FFF75BFD8046002840F0AE8029684F
:103AE4004A1C10D01F2987BF01F01F03564A0B46FA
:103AF4004FF0A0420120984003F5E073C2F8080596
:103B0400032042F823006868431C0DD01F288BBF94
:103B140000F01F0303464C4A4FF0A04203F5E07344
:103B24004FF0000C42F823C03368AA6995F814C01A
:103B3400C3F824256A7DBCF1010F4CEA0202C3F8E4
:103B44006C25C3F81405C3F80C152BD1A968481CBF
:103B54000DD01F298BBF01F01F020A463A484FF0CF
:103B6400A04002F5E0724FF0000C40F822C0E86873
:103B7400421C13D01F2887BF00F01F0C324A844612
:103B84004FF0A0424FF0010E0EFA0CFE0CF5E07C53
:103B9400C2F808E54FF0030E42F82CE0C3F808051C
:103BA400C3F810152C236343FA18C2F804902A6949
:103BB400FA50B9F1000F2AD04FF48E7130682D7F7E
:103BC400FFF78AFE30684FF4A271FFF785FE326872
:103BD4001E4BC2F80433120B51B20029A8BF01F1E5
:103BE40060404FEA4513BABF194802F00F0500F5CB
:103BF4006140DBB2B4BF435580F8003302F01F02CA
:103C0400012303FA02F24909124B43F821203368D5
:103C14000422C3F800252C2303FB04730022C3E908
:103C2400062283F829205A61012283F82A2040467B
:103C3400BDE8F8834FF00808F9E74FF01108F6E7FC
:103C4400900C00205939000000030050800002004D
:103C540014ED00E000E100E02DE9F041036804798F
:103C6400254D0022C3F800252C2202FB04520646EF
:103C7400526872B1214AC3F80823190B4AB20120D1
:103C8400520901F01F0100FA01F120321C4840F8EA
:103C94002210D3F80C05D3F81485D3F80815D3F8FB
:103CA40010754FF0FF329042C3F81425C3F80C2569
:103CB400C3F80825C3F8102501D0FFF7E9FEB8F1D1
:103CC400FF3F02D04046FFF7E3FE7A1C02D038469D
:103CD400FFF7DEFE4B1C02D00846FFF7D9FE306822
:103CE400FFF770FC2C2303FB0454002384F82A30D0
:103CF4006360BDE8F08100BF900C002084020200E4
:103D040000E100E02DE9F047214F06794FF02C093E
:103D140009FB067480466569002D37D16261A16094
:103D240025624FF48E71006884F82850FFF7D4FDA3
:103D3400D8F80000012383602146FFF7D5FD6368AE
:103D4400A14693B9D8F800A0226A63699A4212D3B3
:103D5400D8F80030D3F81C21002AFBD00122DA6005
:103D64002C2303FB0676002373612846BDE8F08705
:103D740094F8283043B9DAF81C31002BF8D04946BE
:103D84005046FFF7B1FDDFE70F25E9E71125ECE722
:103D9400900C00200023435082B043580193019BB0
:103DA40002B070471FB501238DF80030044BCDE9F4
:103DB4000110D3E900126846904705B05DF804FB92
:103DC400BC0C00207FB5374AD2F82461002E48D0BD
:103DD40010464FF49271FFF7DDFF02238DF8003097
:103DE400D2F88034C2F880340393D2F83C3502937D
:103DF4002D4BDA6801920022C3E906226846D3E912
:103E040000129047274AD2F844317BB14FF4A27193
:103E14001046FFF7BFFF244B996939B10021C3E96C
:103E24000611D968D2F83C05FFF7BCFF1D4AD2F849
:103E34002031A3B14FF490711046FFF7ABFF1A4B3A
:103E4400596961B1D2F84C150291002299688DF834
:103E5400002001915A616846D3E90012904704B0EA
:103E640070BDD2F81031002BCCD04FF488711046BD
:103E7400FFF790FF0C4BD2F83C0599698842C1D1F9
:103E8400DC69D96864B1D2F8005225F02005C2F883
:103E940000521A699C61DA60DE61FFF783FFB1E7C3
:103EA4009C61FAE700200040BC0C00201F2886BF5C
:103EB40000F01F00044B4FF0A04300F5E070022215
:103EC40043F82020704700BF000300502DE9F84359
:103ED400664F06799146242202FB0672044692F844
:103EE40020200D46002A40F0BB8061490068FFF79E
:103EF4004DFB8046002840F0B6802868421C10D054
:103F04001F2887BF00F01F035A4A03464FF0A04200
:103F14000121994003F5E073C2F80815032142F822
:103F2400231069684B1C0DD01F298BBF01F01F03A0
:103F34000B46504A4FF0A04203F5E0734FF0000CDB
:103F440042F823C02368AA6995F814C0C3F824254D
:103F54006A7DBCF1010F4CEA0202C3F86C25C3F878
:103F64000C05C3F814152BD1A968481C0DD01F29C2
:103F74008BBF01F01F020A463E484FF0A04002F5F5
:103F8400E0724FF0000C40F822C0E868421C13D0E5
:103F94001F2887BF00F01F0C364A84464FF0A0420A
:103FA4004FF0010E0EFA0CFE0CF5E07CC2F808E5A9
:103FB4004FF0030E42F82CE0C3F80805C3F81015BF
:103FC40024237343FA18C2F804902A69FA50B9F109
:103FD400000F34D04FF4887120682D7FFFF7DAFE8C
:103FE4004FF490712068FFF7D5FE4FF4927120686A
:103FF400FFF7D0FE20684FF4A271FFF7CBFE2268D2
:104004001D4BC2F80433120B51B20029A8BF01F1B1
:1040140060404FEA4513BABF184802F00F0500F597
:104024006140DBB2B4BF435580F8003302F01F0295
:10403400012303FA02F24909114B43F821202368B2
:104044000822C3F80025242303FB06730022C3E9D6
:1040540006225A61012283F820204046BDE8F883F5
:104064004FF00808F9E74FF01108F6E7BC0C002000
:10407400C93D0000000300501003020014ED00E0ED
:1040840000E100E02DE9F04103680479254D0022A8
:10409400C3F80025242202FB04520646526872B17A
:1040A400214AC3F80823190B4AB20120520901F02E
:1040B4001F0100FA01F120321C4840F82210D3F805
:1040C4000C05D3F81485D3F80815D3F810754FF000
:1040D400FF329042C3F80C25C3F81425C3F8082511
:1040E400C3F8102501D0FFF7E1FEB8F1FF3F02D07D
:1040F4004046FFF7DBFE7A1C02D03846FFF7D6FEB7
:104104004B1C02D00846FFF7D1FE3068FFF75AFA7D
:10411400242303FB0454002384F820306360BDE8A7
:10412400F08100BFBC0C00201003020000E100E09D
:1041340001F06043B3F1005F2DE9F041074632D14D
:104144001B4B0679242505FB063598466C6964BB30
:104154006A61A96000684FF49071FFF71BFE4FF489
:10416400AC713868FFF716FE3B686A69A968C3F842
:104174004415C3F8482501229A606A6862B9D3F8E5
:104184002021D3F8584152B9002CF8D00F2424230D
:1041940003FB0686002373612046BDE8F081002CF2
:1041A40018BF0F24F3E71024F6E71124F4E700BF47
:1041B400BC0C00200220FCF74BBF00002DE9F047A7
:1041C40081460D46FCF772FF0328044604D8012DEE
:1041D40004D025B3022D2FD0BDE8F087194D470038
:1041E4003A18A918AE5C4A7852B1DFF868801648CC
:1041F40042464FF40041FDF775FE08B988F8009077
:104204003B192B449A78114B1A55002EE4D0104BCD
:104214001B68002BE0D03046BDE8F04718470A4839
:10422400FDF7A2FE074B04EB440213449E78074BB0
:104234001B5DB342D0D1E8E7024B00EB40041C44C1
:104244006678E2E7440D0020040D00205D0D002097
:10425400580D0020E00C002002210078FFF7AEBFCB
:1042640008B5094B1B7853B10020FCF7BFFE0120B1
:10427400FCF7BCFE0320BDE80840FCF7B7BEBDE870
:104284000840FCF7C7BE00BFE10C0020F8B57B4C2A
:10429400237805461BB100232370FFF7E1FF172D98
:1042A40000F28880DFE805F00C1717435465768028
:1042B400888D888D959A9A9A9A9AC4C9D1D9E4E43A
:1042C400FFF7CEFF6E48FDF74FFE6E4B002204460B
:1042D4001A702046F8BD0020FCF760FEF8B10020FB
:1042E400FCF784FE022D0CBF4FF4E1614FF47A61B8
:1042F400644B1D704FF400404FF4FA740025E0FB4A
:1043040001454FF47A7200232046294601F088F8CB
:10431400002201465A48BDE8F840FDF7E3BDFCF72A
:1043240051FE022D0CBFC8214FF4C871E0E70020F4
:10433400FCF734FE40B10020FCF758FE4FF44871FE
:10434400504B03221A70D5E7FCF73CFEC821F7E76F
:104354000020FCF723FE38B10020FCF747FE4FF4A1
:104364007A61484B0422EDE7FCF72CFE4FF4C87148
:10437400F7E70020FCF712FE48B10020FCF736FEF8
:10438400404B05221A7041F69A110022C2E7FCF74D
:1043940019FEF5E70020FCF75BFE3A4B06221A7083
:1043A400002240F6CD41B5E70020FCF70BFE354B6B
:1043B40007221A7000248CE701202070FCF748FEC5
:1043C400EEE701202070FCF743FE00224FF4804109
:1043D400A0E7FCF72EFE2B4B0C22EAE72A482B4ED3
:1043E400FDF7C2FDD5F1110504461CD0D8B9012D45
:1043F40013D0C8235D434FF400474FF4FA700021F3
:104404004FF47A720023C7FB050101F009F8224634
:1044140001461D48FDF766FD04460220FCF7D2FD67
:104424000123337055E70220FCF7E0FD0023F8E791
:10443400FFF716FF134B1222BBE7FFF711FF002013
:10444400FCF7C0FD0F4B1322B3E7FFF709FF012070
:10445400FCF7B8FD0B4B1422ABE7FFF701FF00207C
:10446400FCF7B0FD0120FCF7ADFD064B1522A0E7DB
:10447400FCF7DFFD034B1D709CE700BF540D0020CB
:10448400240D00205C0D0020E40C0020E10C002031
:10449400044B1B68DB0703D5034B1878FFF7F6BE04
:1044A400704700BF500D00205C0D0020032801D888
:1044B400FCF7E8BD0020704738B51C4B18601C4B56
:1044C40010F00204054619601AD01A4B1A480E223D
:1044D4001A700F22DA7010229A7111225A72042172
:1044E40040F26662FDF736FA044648B9FDF786FAEB
:1044F400044628B90146114A1148FDF7E1FC044677
:10450400EB0711D50120FCF7E3FD6CB921460D4AF8
:104514000D48FDF7D5FC044630B90C4A0C4801217E
:10452400BDE83840FDF7CCBC204638BD500D002016
:10453400580D0020440D0020CCA602005D4200006E
:10454400F0A6020095440000F4A60200B941000060
:10455400ECA6020010B54FF4F0720021044607F0F7
:10456400EBFF0C2107F07AFE4FF0FF324270C2706D
:104574000422027101224271022282710622002366
:10458400027208226FF00201C37143728272C37215
:104594000170817020460249BDE8104014F096B9BC
:1045A400A9450000F7B540F2A7120021054607F01F
:1045B400C3FF01460446002007F0E1FF064613212D
:1045C400204607F0F5FE7378002B43D13379002B96
:1045D40057D04C4F7B88022B0CD94B4B4B4CB0F82B
:1045E40001204B49E41AE4082404737944F00300DD
:1045F400FCF7F7FA474B484801221A700023294672
:1046040000931A460BF0AEF945420646002D76D0CB
:104614007B889BB12846FCF799FD3C4C3A4B3F49BB
:10462400E41AE40840F2B713240401933C4B0093CA
:104634002A46034644F00100FCF7E9FAFCF73AF98C
:104644000028FBD1C6F59C40203003B0BDE8F04003
:10465400FDF7EAB9852B14D12E4B1B78F3B1314BFE
:104664001B7813B10020FCF7ADFC2F4B1B7813B162
:104674000120FCF7A7FC2D4B1B7813B10220FCF79B
:10468400A1FC002D3BD04FF4EB720021284607F02B
:1046940053FF03B0BDE8F04007F02CBD194C62880D
:1046A400022A09D91948184B2149C01AC008000424
:1046B40040F00300FCF788FA294682221D480BF0DB
:1046C400CBF945420646D5B163889BB12846FCF731
:1046D4003DFD0E4C0C4B1149E41AE40840F2CF1393
:1046E400240401930E4B00932A46034644F0010030
:1046F400FCF78DFAFCF7DEF80028FBD1A2E703B043
:10470400F0BD00BF1C000020389A0200709A02001D
:104714006FA70200650D00203D4700008CA7020032
:10472400A3A70200660D0020670D0020680D00207D
:104734001DA8020059450000F0B540F2791289B075
:10474400002107F0F9FE01460546002007F017FF97
:1047540013210446284607F02BFEB0F80130ADF8CB
:104764001E309AB2264B66795B88264F022B0CD9F1
:10477400254B26482649C01AC0083B8800930004EC
:10478400334640F00300FCF736FA00242346224661
:104794000094112128460CF089FC3B8803701B0A05
:1047A400437084704FF48273049404220124CDE98D
:1047B4000232C11C0223CDE900640DF11E02284619
:1047C4000CF024FB134B1978A1420CD01C70124B33
:1047D4001A7832B9114ABDF81E10167051800122A0
:1047E4001A7009B0F0BD0E4B1A78012A01D0197065
:1047F400EDE70C4B1978012918BF1A70E7E700BFE1
:104804001C000020620D0020389A0200709A0200F9
:10481400FCA60200660D0020640D00206A0D002035
:10482400670D0020680D002070B51F4B88B01B88F1
:10483400ADF81E300C464FF48A72002107F07CFE5E
:104844001A4B5B88B4FA84F5022B06464FEA5515D9
:104854000AD91748174B1849C01AC0080004224641
:1048640040F00300FCF7B4F900242246009402232C
:10487400112130460CF01AFC0F234370022383707D
:1048840008224FF482730570C470CDE9023201230B
:10489400011D0494CDE900430DF11E0230460CF0D5
:1048A400B5FA08B070BD00BF620D00201C000020E6
:1048B400709A0200389A020092A8020030B5E722EA
:1048C40087B00D46002107F037FE184B5B88022B9A
:1048D40004460AD91648174B1749C01AC0080004E1
:1048E4002A4640F00300FCF773F900252A46009598
:1048F4000323012120460CF0D9FB104B1B880370C5
:104904001B0A437004224FF48273CDE902320C4A2D
:1049140004950123019312F8023B00930223C1186A
:1049240020460CF073FA07B030BD00BF1C00002015
:10493400709A0200389A02007AA80200620D0020E0
:104944006A0D002070B51F4B88B00C461B88ADF86B
:104954001E30B422002107F0EFFD022C05462CD1B5
:1049640041F21113ADF81E302646174B5B88022B1B
:104974000AD91648164B1749C01AC0080004224623
:1049840040F00300FCF724F9002433462246009447
:10499400112128460CF08AFB4FF482730622CDE9DC
:1049A4000232012301460494CDE900430DF11E02B5
:1049B40028460CF02BFA08B070BD611E4E424E41E1
:1049C400D3E700BF620D00201C000020709A020093
:1049D400389A020062A80200A0F10E03DBB2032B96
:1049E40073B5024636D82C4C2278002A43D12B4A80
:1049F400D55C012323700BF06DFC29466060032213
:104A040027480BF029F845420646002D41D0254B96
:104A14005B889BB12846FCF799FB234C234B244924
:104A2400E41AE40840F2752324040193214B009313
:104A34002A46034644F00100FCF7E9F8FBF73AFF85
:104A44000028FBD1C6F59C40203002B0BDE8704080
:104A5400FCF7EABF134B5B88022B1AD91348124B9D
:104A640015491B1ADB081B0443F0030002B0BDE820
:104A74007040FCF7ADB80B4B5B88022B09D90A4890
:104A84000A4B0E49C01AC0080004012240F003007A
:104A9400ECE702B070BD00BF5C1E0020F8A6020067
:104AA400C54A00001C000020709A0200389A0200D7
:104AB4008CA70200A3A7020029A702004AA70200AC
:104AC400F7B506460BF006FC002E46D0032E46D062
:104AD400022E0CBF03250025854F864B7A68841A65
:104AE4009C4288BF141A412C304694BF00240124F0
:104AF400FFF7DCFC00287CD15CBB022D2B464FF079
:104B0400010221462DD17C4807F080FA4542064631
:104B1400FDB17A4B5B889BB12846FCF717FB784CB8
:104B2400784B7949E41AE40840F2292324040193D8
:104B3400764B00932A46034644F00100FCF767F8DD
:104B4400FBF7B8FE0028FBD1C6F59C402030FCF7EB
:104B54006BFF00233B7003B0F0BD0125BCE70225C9
:104B6400BAE7032D22D16A4807F050FA45420646B7
:104B7400002DEED0614B5B889BB12846FCF7E6FA2A
:104B84005F4C604B6049E41AE40840F22F2324048C
:104B940001935E4B00932A46034644F00100FCF760
:104BA40036F8FBF787FE0028FBD1CDE7524807F023
:104BB4002DFA45420646002DCBD0504B5B889BB165
:104BC4002846FCF7C3FA4E4C4E4B4F49E41AE4080E
:104BD40040F23623240401934C4B00932A460346A7
:104BE40044F00100FCF713F8FBF764FE0028FBD146
:104BF400AAE7002C55D02B4601220021454807F096
:104C040005FA45420746FDB13C4B5B889BB12846FB
:104C1400FCF79CFA3A4C3B4B3B49E41AE40840F25B
:104C2400432324040193394B00932A46034644F05A
:104C34000100FBF7ECFFFBF73DFE0028FBD1C7F5B5
:104C44009C402030FCF7F0FE3146132232480AF033
:104C540003FF45420646002D3FF47DAF274B5B889A
:104C64009BB12846FCF772FA254C264B2649E41AD8
:104C7400E40840F2452324040193244B00932A467C
:104C8400034644F00100FBF7C2FFFBF713FE0028C4
:104C9400FBD1C6F59C40203003B0BDE8F040FCF7E2
:104CA400C3BE314603221C480AF0D6FE45420646DE
:104CB400002D3FF450AF114B5B889BB12846FCF7A5
:104CC40045FA0F4C0F4B1049E41AE40840F24B2309
:104CD400240401930D4B00932A46034644F001003B
:104CE400FBF795FFFBF7E6FD0028FBD1D1E700BFFA
:104CF4005C1E0020FEFFFF7F494900001C000020CD
:104D0400709A0200389A02008CA70200A3A702003E
:104D1400C14800002D480000C54A000073B505468F
:104D2400D8B140F23912002107F006FC0B2107F03C
:104D34003FFB0B220021044600F01BFD03F092FC14
:104D440003882381A37A00216FF3C7132846A37233
:104D540002B0BDE8704014F0E9BB154807F0C5F98E
:104D64004542064615B3134B5B889BB12846FCF7B6
:104D7400EDF9114C114B1249E41AE40840F24713BF
:104D8400240401930F4B00932A46034644F0010088
:104D9400FBF73DFFFBF78EFD0028FBD1C6F59C40D9
:104DA400203002B0BDE87040FCF73EBE02B070BDDA
:104DB400214D00001C000020709A0200389A020065
:104DC4008CA70200A3A7020073B5164E7388EBB13B
:104DD400154B164C164D1749E41AE408240444F004
:104DE40001044FF4AB732A462046FBF7FAFE73889E
:104DF40063B10120FCF7AAF94FF4AB73CDE900537A
:104E0400012203460C492046FBF701FFFBF752FD44
:104E14000028FBD144F6216002B0BDE87040FCF7E5
:104E240003BE00BF1C000020389A0200709A0200E2
:104E3400A3A7020037A802008CA7020010B50446FD
:104E440011F05CF920B12046BDE81040FFF766BFC1
:104E5400022001F037F8012801D0FFF7B5FF4CB16B
:104E640020464FF4B672002107F066FBBDE81040FF
:104E740007F040B910BD00002DE9FF41002603A949
:104E84000546039611F012FC40F29B22044631467B
:104E9400284607F051FB062CB0F9042017D8052C3E
:104EA4006C4E2AD2032C00F0A4806A4B5B88022B40
:104EB40040F29480684B69486949C01AC0080004EC
:104EC400134640F003002246FBF78BFE86E0132CCA
:104ED40000F0BD80142CE8D1002A7FD05D4B5B88A4
:104EE400012B7BD95C4B5D485E49C01AC0080004A5
:104EF40040F00200FBF768FE70E07388002A38D1A6
:104F0400022B09D95548544B5749C01AC00800040C
:104F140040F00300FBF758FE0320FCF753F8294642
:104F2400822252480AF098FD45420746F5B173883B
:104F34009BB12846FCF70AF9484C474B4C49E41A04
:104F4400E4084FF42A73240401934A4B00932A463D
:104F5400034644F00100FBF75AFEFBF7ABFC0028C4
:104F6400FBD1C7F59C402030FCF75EFD04B0BDE8E2
:104F7400F0814BB13948384B3F49C01AC00800048E
:104F840040F00100FBF724FE0320FCF72FF8412238
:104F940000213A480AF060FD47428046F7B1738821
:104FA4009BB13846FCF7D2F82C4C2B4B3049E41A11
:104FB400E4084FF42C73240401932E4B00933A46D7
:104FC400034644F00100FBF722FEFBF773FC0028C4
:104FD400FBD1C8F59C402030FCF726FD002DC5D040
:104FE40040F2D5220021284607F0A6FA07F082F8FD
:104FF400BCE7F2B92046FBF7F9FF7388039C022B48
:105004000AD91648144B22791D49C01AC008000455
:1050140040F00300FBF7DCFD237933B9022000F0F4
:1050240051FF012801D0FFF7CFFE164B00221A7062
:10503400D4E77388002BD1D0074B08481249C01A13
:10504400C008000440F00100FBF7C2FDC6E70BF006
:10505400CBF8C3E71C000020389A0200709A0200C3
:105064006AA902003EA90200BEA802005945000038
:105074008CA70200A3A70200DAA80200414E000098
:10508400FDA802009E0100201AA902007FB5FCF7CA
:10509400E7FE08B1FCF7C8FC4FF400410020FBF721
:1050A40055FB08B1FCF7C0FCFBF76EFA3F4903203F
:1050B400FFF702FA08B1FCF7B7FCFBF7ABFF3C4B78
:1050C40000241C703B4B1C803B4B1C7007F0ACFB5A
:1050D40007F0ACFB02A8FCF7A1F802A80BF076F9E4
:1050E4004FF480100BF098F9204600F067F9062081
:1050F4000AF08AF9C3200AF08DF9082221462F48C4
:1051040000F037FB2E4800F083FC0BF088F9454291
:105114000646FDB12B4B5B889BB12846FCF716F87D
:10512400294C2A4B2A49E41AE4084FF44073240416
:105134000193284B00932A46034644F00100FBF7F1
:1051440066FDFBF7B7FB0028FBD1C6F59C40203079
:10515400FCF76AFC02A806F045FD1F4B1F4D013009
:1051640018802C78E4B90320FBF740FF2046FBF7B6
:105174003DFF0120FBF73AFF0220FBF737FF114BFD
:105184005B88022B09D91048104B1549C01AC00876
:10519400000440F00300FBF717FD002004B070BDCD
:1051A4000BF03FF9FBF786FBDBE700BFDD490000AE
:1051B400D5010020D6010020D80100205C1E00206B
:1051C400350100201C000020709A0200389A020069
:1051D4008CA70200A3A70200620D00209E010020FC
:1051E400AEA80200054B1B68082B01BF044B1868CE
:1051F400B0FA80F0400918BF002070473001001059
:105204003401001008B54FF080430022C3F80C218C
:10521400C3F81021C3F838254FF0805203F54043FA
:10522400D2F80414C3F82015D2F80814C3F82415CE
:10523400D2F80C14C3F82815D2F81014C3F82C159E
:10524400D2F81414C3F83015D2F81814C3F834156E
:10525400D2F81C14C3F84015D2F82014C3F844152E
:10526400D2F82414C3F84815D2F82814C3F84C15FE
:10527400D2F82C14C3F85015D2F83014C3F85415CE
:10528400D2F83414C3F86015D2F83814C3F864158E
:10529400D2F83C14C3F86815D2F84014C3F86C155E
:1052A400D2F84424C3F87025FFF79CFF10B1384BA3
:1052B400384A1A60FFF796FF18B1374BFB22C3F840
:1052C4001825FFF78FFF48B13449354B0A681B682E
:1052D40022F00F0203F00F0313430B60FFF782FF6A
:1052E40018B1304B4FF400721A604FF08043D3F87A
:1052F4000024D20744BF6FF00102C3F800242A4AF5
:10530400D2F8883043F47003C2F88830BFF34F8F6B
:10531400BFF36F8F4FF01023D3F80022002A03DB72
:10532400D3F80432002B2FDA204B0122C3F80425D2
:10533400D3F80024002AFBD04FF010221221C2F827
:105344000012D3F80024002AFBD04FF010231222BD
:10535400C3F80422154B1A46D3F800140029FBD0D5
:105364000021C3F80415D2F80034002BFBD0BFF39E
:105374004F8F0D490E4BCA6802F4E0621343CB60B1
:10538400BFF34F8F00BFFDE70A4B0B4A1A6008BDFD
:105394008C5600404881030000F00040E40E0040B9
:1053A400580200104096024000ED00E000E0014089
:1053B4000400FA05B80100200090D00307B500BB33
:1053C400124B0C22C3F824270A22D3F81015013AF1
:1053D400C1F340210191F8D1019B73B90C4B5B8857
:1053E400022B09D90B480C4B0C49C01AC008000405
:1053F40040F00300FBF7E8FB0120044B0222C3F852
:10540400242703B05DF804EB0AF0E8BF0003005062
:105414001C000020709A0200389A02008AA9020037
:1054240053EA020C61D02DE9F04BB3FA83F51E0068
:1054340007BFB2FA82F502FA05F403FA05F4164638
:10544400C5F120051EBF22FA05F73C43203556EA74
:10545400044C4FEA144418BF0134A3464FF000092A
:10546400C846904271EB030C39D3094207BFB0FA26
:1054740080F700FA07F6B1FA81F701FA07F6C7F1E7
:1054840020071EBF20FA07FC46EA0C062037B6FBAD
:10549400FBFC7F1B103F07F01F04C4F120060CFA2D
:1054A40004F42CFA06F644BF34460026202FA4BF89
:1054B4002646002454EA060C08BF012418EB04080D
:1054C40049EB0609A4FB027CC01B06FB02CC04FBCF
:1054D40003CC71EB0C01904271EB030CC5D20B466B
:1054E400024649464046BDE8F08BB2FBF3F22DE993
:1054F400304081EA03040D46002906DA6FEA000011
:105504006FEA0101013041F10001002B06DA6FEA74
:1055140002026FEA0303013243F10003FFF780FF45
:10552400002C06DA6FEA00006FEA0101013041F154
:105534000001002D06DA6FEA02026FEA030301326A
:1055440043F1000330BD00007F2805D8034B185CED
:10555400034B5B5C1840704700207047B4A90200FD
:1055640034AA0200A0F16103192B98BF20387047B8
:10557400A0F14103192B98BF203070477F2805D82C
:10558400034B185C034B5B5C18407047002070476A
:10559400B4A9020034AA0200A0F16103192B98BF38
:1055A40020387047A0F14103192B98BF2030704771
:1055B4007F299ABF017001206FF02E0070475AB105
:1055C4000A787F2A0AD800B1026000211960596064
:1055D400501A18BF01207047002070476FF02E004A
:1055E4007047000008B5034B5B689B681B689847CD
:1055F40008BD00BFBC01002008B50921FFF7F2FF78
:1056040008BD002A36D070B413460F2A1AD940EACE
:10561400010212F0030F01D05A1E15E004680A6853
:105624009442F9D1043B041D0A1D1146204604345A
:10563400043206680D68AE42EED120461146043BA2
:10564400042BF2D85A1E10D004780B789C420CD14B
:10565400431C4C1C024418462146934205D0013396
:10566400013406780D78AE42F5D000780B78C01A74
:1056740070BC70470020704710B488420CD98B1856
:10568400841832B1224613F8014D02F8014D9942B3
:10569400F9D15DF8044B70478842FAD0002AF8D05B
:1056A400431E0A4411F8014B03F8014F8A42F9D111
:1056B400EFE70000054B1868054943F2390201FB86
:1056C40000201860C0F30E40704700BFD0010020D6
:1056D4006D4EC641014B1860704700BFD0010020D9
:1056E400E2B170B41546012A13D003788BB10A785D
:1056F4009A420ED14B1C441C01394A1920461946C2
:10570400934206D014F8015B1DB101330E78AE420A
:10571400F4D000780B78C01A70BC70470020704732
:10572400844640EA010313F0030F18D18446202A6B
:105734000BD32DE9F007B1E8F807A0E8F807A2F1C8
:105744002002202AF7D2BDE8F007042A07D351F833
:10575400043B40F8043BA2F10402042AF7D2002AD5
:1057640005D011F8013B00F8013B013AF9D160463C
:1057740070478446002A2DD010F0030F04D000F89F
:10578400011B013A26D0F7E7C9B241EA012141EAF7
:105794000141202A12D3A2F120022DE9F0030B4685
:1057A4000C460D460E460F4688468946A0E8FA0385
:1057B400203AFBD2BDE8F00320320BD0042A05D3F3
:1057C40040F8041B043A05D0042AF9D200F8011B5E
:1057D400013AFBD16046704700F1010110F0030F5C
:1057E40011D010F8012B002A23D010F0030F0AD097
:1057F40010F8012B002A1CD010F0030F03D010F86E
:10580400012B002A15D02DE970004FF001324FF022
:10581400803350F8044BA4EB020525EA04051D402F
:1058240000D1F6E7A0F1040070BC10F8012B002AA7
:10583400FBD1A0EB0100704770B5194CB4F8FA55D0
:1058440084F8063625F00705054305F0E70545F419
:105854008045A4F8FA55DD01022845EA810134BFE8
:105864000226002641EAC2013143342284F8FC15A1
:1058740084F8FD250021122284F8FE2588424FF089
:105884006C0284F8FF2542F6412218BF4FF42852D7
:10589400A4F80016A4F80226A4F8041670BD00BFEC
:1058A400B822002030B50A4DB5F8074624F00F049D
:1058B400204320F0F00040EA011020F4706040EA38
:1058C4000220C0F30B0040EA0330A5F8070630BD00
:1058D400B822002070B583798B4205460C461646E3
:1058E40004D8A9214FF4496006F058FE043425F881
:1058F400146070BD70B5C3798B4205460C461646DC
:1059040004D8B7214FF4496006F048FEAB791C4433
:10591400043425F8146070BD70B51C4D1C4E95F808
:105924000E260023082102F0F00285F80F1663F317
:105934000712092185F80936A5F80A36A5F80C36A8
:1059440085F8101685F80E2685F84C361C4605F2A7
:10595400096536F81420E1B228460134FFF7BAFF8E
:10596400082CF6D10B4E0C4D0024325DE1B22846D2
:105974000134FFF7BFFF092CF7D10C2303220721C1
:105984000020BDE87040FFF78DBF00BFB8220020A3
:10599400F4AB020004AC0200C128002008B50A4B95
:1059A40093F87921003218BF012211460123022005
:1059B400FFF742FF01220C2311460020FFF772FF7C
:1059C400BDE80840FFF7A8BFB822002007B50F4B79
:1059D40093F84C26052A0AD8511C83F84C1603EB7D
:1059E4008203C3F83406002003B05DF804FB0423EB
:1059F400019200934FF0FF3040F219134FF44962C3
:105A040001210AF055FB6FF01C00EDE7B8220020DD
:105A14002DE9F7430AF0C2FD0BF06EFB83681B7897
:105A24000193042300934FF4496240F227130121A8
:105A34004FF0FF300AF03CFB00260BF05DFB83685F
:105A44001B78F4B2A3420CD80AF0CCFD00286CD128
:105A540040F23F114FF4496003B0BDE8F04306F053
:105A64009DBD0BF049FB8368D3F8013053F8243013
:105A7400D3F81500FFF7AAFF0BF03EFBD0F8B030C7
:105A8400A50063B10BF038FBD0F8B0700BF034FB19
:105A94008368D3F8013053F824301878B8470027C6
:105AA4000BF02AFB8368D3F801305B591B7CFCB2F2
:105AB400A34201D80136C0E70BF01EFB8368D3F87C
:105AC40001305B59D3F81130C4EB04142344D3F8E8
:105AD4000B305BB10BF010FB8368D3F801305B59DA
