:1000000000000420750300005D0300005F03000092
:1000100061030000630300006503000000000000AE
:100020000000000000000000000000006703000066
:1000300069030000000000006B0300006D03000076
:10004000A9610000F9D00200E56E00006F03000016
:100050006F0300006F030000FD6B00006F030000E2
:100060006F0300006F0300006F0300006F030000C8
:100070006F030000D97200006F0300006F030000DF
:100080006F030000913900006F0300006F03000050
:10009000D13900006F0300006F0300006F03000000
:1000A0006F0300006F030000B97A00006F030000C7
:1000B0006F0300006F03000000000000000000005C
:1000C0006F0300006F0300006F0300006F03000068
:1000D000EDF202006F0300006F0300006F030000E9
:1000E0006F0300006F0300006F03000000000000BA
:1000F000000000006F030000000000006F0300001C
:1001000000000000000000000000000000000000EF
:1001100000000000000000000000000000000000DF
:1001200000000000000000000000000000000000CF
:1001300000000000000000000000000000000000BF
:1001400000000000000000000000000000000000AF
:10015000000000000000000000000000000000009F
:10016000000000000000000000000000000000008F
:10017000000000000000000000000000000000007F
:10018000000000000000000000000000000000006F
:10019000000000000000000000000000000000005F
:1001A000000000000000000000000000000000004F
:1001B000000000000000000000000000000000003F
:1001C000000000000000000000000000000000002F
:1001D000000000000000000000000000000000001F
:1001E000000000000000000000000000000000000F
:1001F00000000000000000000000000000000000FF
:10020000354936480A1A02D0072291438D463449AF
:1002100034480A1A06D00722914381F30988022242
:1002200082F3148830483149314A00F044F83148AB
:100230003149324A00F03FF831483249324A00F041
:100240003AF832483249334A00F035F832483349F7
:10025000334A00F030F833483349344A00F02BF881
:1002600033483449344A00F026F8344834490022EF
:1002700000F02CF833483449002200F027F83348C6
:100280003349091A082902DB002202604160314A21
:1002900090471F481F49884205D00268043003B4C4
:1002A000904703BCF7E700208646EC46002000217B
:1002B000294A9047FEE7884207D0521A05D00378B2
:1002C00001300B700131013AF9D17047884202D0F8
:1002D00002700130FAE770470000042000E00320BC
:1002E0000000042000000420602E03008C00002089
:1002F000C4020020D4030000D403000052F802001E
:10030000602E03008C0000208C00002098F9020071
:1003100098F9020098F9020098F9020098F9020091
:1003200098F9020098F9020098F902005D2E030086
:1003300098300300C4020020C4020020C402002040
:100340009E3A0020A03A0020A03A0020A03A0020C7
:10035000A05A00209D030000B1AB0000FEE7FEE7BD
:10036000FEE7FEE7FEE7FEE7FEE7FEE7FEE7FEE765
:10037000704700BF1048804710484FF0070188437E
:1003800085460F4880470F48016841F470010160BD
:10039000BFF34F8FBFF36F8FFFF732BF0A480B4990
:1003A0000B4A884207D0521A05D0037801300B70EF
:1003B0000131013AF9D170477103000000000420B7
:1003C000E9AC000088ED00E00CF90200000000201C
:0403D0008C0000207D
:1003D40000B5A1B00590049103920293049804F02F
:1003E400DCFD039B1593029B1693002317930023B4
:1003F4008DF8603000231993229B1A9300231F93D6
:100404000FA91F9B0822049804F0A0FE08231F9341
:10041400119B1293BDF84030ADF84C30BDF842301A
:10042400ADF84E3000238DF851309DF83C3003F088
:100434000303DBB2012B26D10F9BC3F395231D933A
:100444009DF83C30C3F3C203DBB28DF85030BDF8E5
:100454003C30C3F38313DBB21C931C9B9A0009A9A1
:100464001F9B049804F072FE1C9B9B001F9A13446C
:100474001F9312AA09A915AB009313461C9A1D9841
:1004840001F086F92FE09DF83C3003F00303DBB262
:10049400022B28D1BDF83E30C3F389139BB21E93BF
:1004A4009DF83C30C3F3C203DBB28DF850301E9B81
:1004B400082B28BF08231B9307A91F9B1B9A04988A
:1004C40004F044FE1F9A1B9B13441F931E9A1B9B0C
:1004D400D31A1E9315AB12AA07A81B9901F0FAF9B7
:1004E4001E9B002BE3D1049804F066FD00BF21B0ED
:1004F4005DF804FB00B583B00190019B1B781A469C
:100504000C4B9B5C002B05D0019B0433184608F070
:10051400BBFC0BE0019B1B781A46064B9B5C002B33
:1005240004D1019B0C33184607F07CFE00BF03B0D6
:100534005DF804FBF80B002000B587B0039002912E
:1005440013468DF8073000230593039B1B781A4646
:10055400114B9B5C002B09D0039B04339DF80720AF
:100564000299184608F0BEFC05900FE0039B1B7827
:100574001A46094B9B5C002B08D1039B0C339DF856
:1005840007200299184607F0C3FE0590059B1846FC
:1005940007B05DF804FB00BFF80B002082B00190A7
:1005A4000091034B01221A7000BF02B0704700BFD4
:1005B4000403002030B58DB003468DF807301A4B84
:1005C40002AC1D460FCD0FC495E80F0084E80F0060
:1005D400062302934FF0FF3303934FF0FF3304934A
:1005E4004FF0FF3305934FF0805308939DF8073085
:1005F400002B01D00D4A00E0002202AB19460C4842
:1006040005F0DCFA0B900B9B0A930A9B002B04D099
:10061400084A43210A9802F0B9FC074A9DF80730BA
:10062400137000BF0DB030BD00FA0200A105000038
:100634008C00002098F902000503002000B583B067
:1006440001238DF807309DF807301846FFF7B2FFF5
:1006540000BF03B05DF804FB00B589B003900291BC
:100664000192019B8DF81F30124B00221A709DF8E5
:100674001F301A4602991048FFF75EFF0690069B4A
:100684000593059B002B04D00C4A5321059802F0D6
:100694007DFC00BF0A4B1B78002B07D0054B1B7851
:1006A400DBB283F00103DBB2002BF3D100BF09B04E
:1006B4005DF804FB040300208C00002098F902007C
:1006C4000503002000B585B003900291054B00930B
:1006D4004023054A02990398FFF77AFE00BF05B04C
:1006E4005DF804FB5D060000C402002082B00190A6
:1006F40000BF02B07047000000B583B00190054808
:10070400FFF7F8FE0020FFF755FF00BF03B05DF8C8
:1007140004FB00BF8C00002082B00190019BDB68C9
:1007240001225A7100BF02B07047000000B583B0C7
:100734004FF0FF330193FFF781FF0421084800F0D5
:100744003BFF0190019B002B03DA0649482003F08C
:1007540069FA0348FFF7E0FF00BF03B05DF804FB4C
:10076400E4F8020040FA020000B583B00190009161
:10077400019B1B681B6800990198984700BF03B050
:100784005DF804FB00B583B00190019B1B689B6876
:100794000198984700BF03B05DF804FB82B0019054
:1007A4000B468DF80330019BDB689DF803201A711A
:1007B40000BF02B0704782B00190019BDB681B79D7
:1007C400184602B0704782B00190019BDB685B79E8
:1007D400184602B07047000000B58DB0019000913A
:1007E4003F4BFF229A603E4B00221A603C4B002292
:1007F4005A603B4B0022C3F81824394B0022C3F83B
:100804001424374B002283F82024364804F02AFBB2
:100814000890089B002B01D0089B5CE0324804F050
:100824000DFF324A324BD31ADB08079300230B9394
:1008340032E00023099300230A931DE00B9A0A9BDC
:100844009A4216D00B9BDB00294A13441B6806937B
:100854000A9BDB00264A13441B680593142205995E
:1008640006980AF057FE0346002B02DD099B01336C
:1008740009930A9B01330A930A9A079B9A42DDD390
:100884000B9B9B001B4A13440493099B9AB2049B41
:100894001A800B9B01330B930B9A079B9A42C8D384
:1008A40000230B9312E00B9B9B00124A1344039307
:1008B4000B9B9B00104A13440293039B00225A8013
:1008C400029B00221A600B9B01330B930B9A079B2C
:1008D4009A42E8D3002318460DB05DF804FB00BF2C
:1008E40070040020F4F802003CFB0200E4F802006B
:1008F4006CF80200000000203C000020024A034B78
:10090400D31ADB0818467047E4F802006CF80200BA
:1009140000B587B001900B468DF803309DF8033085
:10092400002B1FD0FFF7EAFF04900023059313E088
:10093400059B9B000E4A13440393039B1B881A4692
:10094400019B1B689A4204D1019B059A1A600023FB
:1009540009E0059B01330593059A049B9A42E7D36A
:10096400052300E00023184607B05DF804FB00BF30
:100974000000002000B585B001900B468DF80330CF
:100984009DF8032001AB11461846FFF7C1FF03464B
:10099400002B07D1019BDB00054A13440393039BFF
:1009A4001B6800E00023184605B05DF804FB00BF97
:1009B4006CF8020084B001900B468DF80330019B63
:1009C400DB00174A134402939DF80330013B032BC9
:1009D4001CD801A252F823F0ED090000F50900002B
:1009E400FD090000070A000002238DF80F3011E012
:1009F40004238DF80F300DE0029B1B798DF80F3026
:100A040008E0029B5B798DF80F3003E000238DF83A
:100A14000F3000BF9DF80F30184604B0704700BF78
:100A24006CF8020086B001900023ADF81630002364
:100A3400049316E00722049B9A40019B1A40049BEE
:100A440022FA03F3ADF80E30BDF80E20BDF81630CF
:100A54009A4203D9BDF80E30ADF81630049B033327
:100A64000493049B092BE5D9BDF81630184606B04B
:100A74007047000000B587B00390029113468DF8CB
:100A84000730029B9B001C4A13440593029B9B0066
:100A94001A4A13440493049B1968039A13465B008F
:100AA4001344072202FA03F3DB4301EA0302049B23
:100AB4001A60049B19689DF80700039A13465B00AB
:100AC40013449840039A13465B001344072202FA26
:100AD40003F3034041EA0302049B1A60049B1B686E
:100AE4001846FFF79FFF03461A46059B5A8000BF2E
:100AF40007B05DF804FB00BF000000203C000020AC
:100B040084B00190019BDB00034A13440393039BCD
:100B1400DB79184604B070476CF8020084B0019089
:100B2400009100238DF80F30019B1B7803F0040320
:100B3400DBB2002B24D0019B1B78C3F30103DBB28F
:100B4400012B02D0022B0CD017E0009B1B68019AEA
:100B54001288C2F38312D2B213449A1C009B1A6007
:100B64000BE0009B1B68019A5288C2F3891292B26F
:100B740013449A1C009B1A6000BF01238DF80F30A8
:100B84009DF80F30184604B07047000000B58BB0D4
:100B94000023ADF826303E4803F00EF93D4803F03B
:100BA4000BF93D4B5B6804933B4B9B680693049A9B
:100BB400069B134002339B00374A134404330893C3
:100BC40004AB19460898FFF7A9FF0346002B09D088
:100BD400049A069B134002339B002F4A13440433A8
:100BE4000893EDE700BF0023079311E0049B5A1C10
:100BF4000492069A1340079A920001A90A442649CE
:100C040002339B000B445B681360079B013307931B
:100C1400079B012BEAD99DF80430C3F30103DBB22F
:100C2400012B10D0022B1CD1BDF80A30ADF82630B0
:100C3400BDF80630C3F389139BB203339A08049BAF
:100C44001344049313E0BDF80A30ADF82630BDF820
:100C54000430C3F38313DBB21A46049B1344049396
:100C640005E00E494FF4BF7002F0DCFF00BF0948F5
:100C740003F0AEF80590059B002B02D0049B064AB6
:100C84005360BDF8263018460BB05DF804FB00BF76
:100C9400880800208408002070040020C4FA0200A0
:100CA40000B585B00021074802F0D3FF0390039BF1
:100CB4000293029B83F310030193019B184605B032
:100CC4005DF804FB8C08002000B589B00390029104
:100CD40001920093039B1B0C0793FFF7E1FF06901F
:100CE400FFF70CFE0246079B934204D3214940F2CE
:100CF400A31002F097FF069B1904009B5A1C0A9B41
:100D04001340079A0A431C4902339B000B445A6060
:100D1400009A0A9B134002339B00174A134404337E
:100D24000593039B03F00703D9B2059A137861F383
:100D3400C5031370019B03F00F03D9B2059A1388FE
:100D440061F389131380029BC3F31501059A136899
:100D540061F39F231360059A1378012161F3010362
:100D64001370059A13786FF38203137000BF09B0F0
:100D74005DF804FBC4FA02007004002000B58BB0D7
:100D84000390029113468DF80730039B02330893B6
:100D940001238DF81F30002002F0EEFE3E4B1A684E
:100DA400029B1A603C4B9A683B4B59683A4B1B6850
:100DB400CB1A13440133099314E00121374802F09C
:100DC400BFFFFFF7E3FE06900699344802F0B8FF30
:100DD400314B9A68304B59682F4B1B68CB1A13441C
:100DE40001330993089A099B9A42E6D89DF81F306B
:100DF400002B48D0002304939DF80730002B17D014
:100E04009DF81030012262F301038DF810309DF833
:100E1400103043F004038DF81030039B03F00F03EC
:100E2400DAB2BDF8103062F38913ADF8103016E071
:100E34009DF81030022262F301038DF810309DF802
:100E4400103043F004038DF81030039BC3F30903FF
:100E54009AB2BDF8123062F38F13ADF812300E4B14
:100E64001A680D4B9B68134002339B000A4A1344D3
:100E740004330593049A059B1A60074B1A68089B70
:100E84001344054A1360002002F08AFE9DF81F30C7
:100E940018460BB05DF804FB700400208C08002099
:100EA40000B58BB005900491039202931F4B9B688D
:100EB400079306AB012219460298FFF75FFF03462A
:100EC400002B24D0069B023309930023089311E0DE
:100ED400089B9B00039A1A44099B591C0991079982
:100EE4000B401268114902339B000B445A60089B63
:100EF40001330893089A029B9A42E9D3069A079B06
:100F040000931346029A04990598FFF7DDFE074BF8
:100F140093F82034002B05D000BF00F01BF90346E2
:100F2400002BFAD100BF0BB05DF804FB7004002065
:100F340000B583B00190009100230022009901982C
:100F4400FFF7AEFF00BF03B05DF804FB00B587B048
:100F5400039002910192019B059305AA0123029932
:100F64000398FFF79DFF00BF07B05DF804FB00B5D1
:100F740087B00390029101920093019B0493009B1C
:100F8400059304AA022302990398FFF789FF00BF7F
:100F940007B05DF804FB00B589B00390029101929B
:100FA4000093019B0593009B06930A9B079305AA54
:100FB400032302990398FFF773FF00BF09B05DF89C
:100FC40004FB00B589B00390029101920093019B48
:100FD4000493009B05930A9B06930B9B079304AA17
:100FE400042302990398FFF75BFF00BF09B05DF883
:100FF40004FB000000B58DB0039002911346ADF8D8
:1010040006304B4B9B680B93BDF8063003339B08AB
:1010140005A900221846FFF7B1FE0346002B78D03D
:10102400059B0A93059B02330593414B9A680599E6
:101034000B9B0B40D31A01339B000993BDF8063078
:10104400099A9A420ED3059A0B9B134002339B00D4
:10105400374A13440433BDF80620029918460AF0AF
:1010640079FA17E0059A0B9B134002339B00304A30
:1010740013440433099A029918460AF06BFA029A47
:10108400099BD118BDF80620099BD31A1A46294892
:101094000AF060FA039B1B0C0893FFF701FE07900C
:1010A400079B19040A9B5A1C0B9B1340089A0A437A
:1010B4001F4902339B000B445A600A9A0B9B13404E
:1010C40002339B001A4A134404330693039B03F030
:1010D4000703D9B2069A137861F3C5031370069A0D
:1010E40013886FF38F131380BDF80630C3F309031D
:1010F40099B2069A538861F38F135380069A137832
:10110400022161F301031370069A13786FF38203CB
:101114001370074B93F82034002B05D000BF00F068
:1011240019F80346002BFAD100BF0DB05DF804FB9B
:10113400700400207C040020054B5A68044B1B6893
:101144009A420CBF01230023DBB21846704700BF4C
:101154007004002000B59BB0FFF7EEFF0346002BA0
:1011640001D00023E3E19A4B0022C3F81824BFF313
:101174004F8F974B5B680393954B9B681193039A2E
:10118400119B134002339B00914A13440433199377
:1011940000231893002317930023169303AB1946D7
:1011A4001998FFF7BBFC0346002B19D0884BD3F8E2
:1011B4001834002B14D1864B1A68039B9A4205D825
:1011C400834B1B68824A53600023B0E1039A119B4E
:1011D400134002339B007E4A134404331993DDE722
:1011E4000023159311E0039B5A1C0392119A134098
:1011F400159A920069460A44754902339B000B44D0
:101204005B681360159B01331593159B012BEAD979
:101214009DF8003003F00303DBB2022B40F09C8006
:10122400BDF80230C3F389139BB21093BDF80230AA
:10123400C3F389139BB2502B28BF50239BB20F9347
:101244000F9BC3F309039AB2BDF8023062F38F1304
:10125400ADF802300F9B08330E939DF80030C3F3B2
:10126400C203DBB216930E995A4803F006FE189097
:10127400189B002B00F0D080189803F08EFE69466E
:10128400179B0822189803F043FF179B0833179302
:10129400039BDA43119B134001339B000D930F9A78
:1012A4000D9B9A4242D90D9B002B08D0039A119BA7
:1012B400134002339B00464A1344043300E0464B78
:1012C4000C930D9B002B02D00D9BDBB201E00F9B16
:1012D400DBB28DF82F300D9B002B01D03E4B00E08C
:1012E40000230A930D9B002B06D00F9BDAB20D9BB3
:1012F400DBB2D31ADBB200E000238DF827309DF86F
:101304002F20179B0C99189803F002FF9DF82F309B
:10131400179A134417930A9B002B16D09DF8272085
:10132400179B0A99189803F0F3FE0EE0039A119B99
:10133400134002339B00264A134404330893179B3B
:101344000F9A0899189803F0E3FE109B03339A0848
:10135400039B134403935FE09DF8003003F0030301
:10136400DBB2012B58D1BDF80030C3F38313DBB2D9
:10137400062B28BF0623DAB2BDF8003062F38913C6
:10138400ADF80030BDF80030C3F38313DBB2023391
:1013940007939DF80030C3F3C203DBB21693079B97
:1013A4009B0019460B4803F068FD1890189B002B0E
:1013B40032D0189803F0F1FD6946179B082218985B
:1013C40003F0A6FE179B08331793002315931AE026
:1013D40070040020F4F802007C040020039B5A1CD3
:1013E4000392119A134002339B00534A1344191D6C
:1013F400179B0422189803F08BFE179B0433179352
:10140400159B01331593BDF80030C3F38313DBB28E
:101414001A46159B9342E1D3189B002B63D0464B8D
:10142400D3F810341493444BD3F81834002B45D01C
:10143400189803F0C1FD74E000238DF84F30149820
:10144400FFF7C1F90346002B2CD01498FFF7B3F92A
:1014540003468DF81B30BDF804309B00374A134413
:101464000593059B19689DF81B2013465B001344E4
:10147400072202FA03F319409DF81B2013465B0070
:10148400134421FA03F30493169B052B01D0169BF6
:1014940000E003231693049A169B9A4202D3012375
:1014A4008DF84F309DF84F30002B03D018991498C5
:1014B400FFF75AF9149BDB681B681493149B002BE9
:1014C400BAD1189803F078FD002002F055FB1A4BAE
:1014D400D3F81834002B02D1039B174A5360002021
:1014E40002F05EFB1DE0144BD3F81034129306E0B7
:1014F4001298FFF747F9129BDB681B681293129B43
:10150400002BF5D10E4B5B88012B0AD90D4A0E4BEB
:10151400D31ADB081B0443F002030C491846FFF7F7
:1015240007FDFFF709FE034683F00103DBB218460B
:101534001BB05DF804FB00BF700400203C000020D9
:101544001C000020A4F802006CF8020028FB020032
:1015540000B585B00023039323E0164BD3F8103471
:10156400029301238DF807300FE00298FFF723F967
:1015740003461A46039B934203D100238DF8073098
:1015840006E0029BDB681B680293029B002BECD1F4
:101594009DF80730002B01D0039B07E0039B013328
:1015A4000393039B092BD8DD4FF0FF33184605B096
:1015B4005DF804FB7004002000B587B001900B4671
:1015C4008DF80330FFF7C4FF0490049BB3F1FF3F91
:1015D40001D1049B48E0049BDBB219460198FFF754
:1015E400DDF8234BD3F81034002B08D1204A019B9B
:1015F400C2F81034019BDB6800221A600DE01C4B1A
:10160400D3F81034DA68019BDB6812681A60184B4F
:10161400D3F81034DB68019A1A60002305931CE0A8
:101624000598FFF76DFA03468DF80F309DF80320F7
:101634009DF80F30934228BF13468DF80E30019861
:10164400FFF7B9F8034618469DF80E301A46059977
:10165400FFF710FA059B01330593FFF74FF9024694
:10166400059B9342DCD3049B184607B05DF804FB4A
:101674007004002082B00190009100BF02B0704756
:1016840010B584B003900291039BDB88002B0AD031
:10169400039BDB881A461F4B009313461E4A1F49BF
:1016A400029802F0CFFC039B1B7A052B2ED0039BE0
:1016B4005B7A002B12D0039B9B881A46039B1B7AF0
:1016C40019461046FFF776F903461A46144B53F8A9
:1016D40022301A461349029802F0B4FC039B1B689B
:1016E40019460298FFF7C6FF039B1B7A1A460E4B56
:1016F40053F82240039B9B8800211846FFF73AF9D0
:10170400034622460949029802F09CFC00BF04B03B
:1017140010BD00BF68FB020078FB0200B0FB0200B2
:10172400BC000020C8FB0200A8000020CCFB020083
:1017340000B585B00390029113468DF80730039BE2
:101744001B7A052B0FD0039B5B7A002B06D00D4B25
:101754001B681A460C49029802F074FC0B49029863
:1017640002F070FC07E09DF80730002B03D0074916
:10177400029802F067FC029802F042FC00BF05B038
:101784005DF804FBBC000020C8FB0200D8FB02008B
:1017940030B58BB007900691059204930E9B1B7B8A
:1017A4008DF827300E9B00221A730E990498FFF7C8
:1017B40067FF059B062B7FD801A252F823F000BFD8
:1017C400E1170000EB170000FB1700000F180000E2
:1017D4002D180000551800008518000007990E9870
:1017E40002F030FC69E0069B1B681A4607990E98C4
:1017F40002F028FC61E0069B1A68069B04331B6810
:1018040007990E9802F01EFC57E0069B1A68069B87
:1018140004331968069B08331B6800930B46079929
:101824000E9802F00FFC48E0069B1968069B0433EF
:101834001868069B08331B68069A0C3212680192DA
:10184400009303460A4607990E9802F0FBFB34E026
:10185400069B1868069B04331C68069B08331B68A8
:10186400069A0C32126806991031096802910192A5
:1018740000932346024607990E9802F0E3FB1CE00E
:10188400069B1C68069B04331D68069B08331B6873
:10189400069A0C32126806991031096806981430B9
:1018A400006803900291019200932B462246079907
:1018B4000E9802F0C7FB00E000BF00220E990498C6
:1018C400FFF736FF0E9B9DF827201A7300BF0BB05D
:1018D40030BD00BF00B587B0039002910192009320
:1018E400029B082B60D8009B1B7B8DF81330009B58
:1018F40000221A7300990198FFF7C2FE0023059392
:1019040014E0059A029B9A4209D2039A059B134458
:101914001B781A462649009802F094FB03E02549F7
:10192400009802F08FFB059B01330593059B072B61
:10193400E7D92149009802F085FB0023059326E0AE
:10194400059A029B9A421BD2039A059B13441B7867
:101954008DF812309DF812307E2B0AD89DF8123083
:10196400184609F063FD0346002B02D09DF812309F
:1019740000E02E231A461149009802F063FB03E0AD
:101984000F49009802F05EFB059B01330593059B0C
:10199400072BD5D9012200990198FFF7C9FE009BB6
:1019A4009DF813201A7300E000BF07B05DF804FB34
:1019B400DCFB0200E4FB0200E8FB0200ECFB02009B
:1019C400F0FB020000B583B00190019B1B682F2B34
:1019D40004D90B494FF4F37002F024F9019B1B68FE
:1019E4001F2B02D84FF0A04306E0019B1B6803F0B5
:1019F4001F02019B1A60034B184603B05DF804FBF9
:101A0400F4FB02000003005000B585B001900846C5
:101A140011461A4603468DF803300B468DF8023002
:101A240013468DF8013001AB1846FFF7CBFF039046
:101A34009DF803209DF802305B001A439DF80130A5
:101A44009B001A439DF818301B0242EA03019DF8DB
:101A54001C301B04019A1943039B02F5E07243F8FE
:101A6400221000BF05B05DF804FB00B585B00390FB
:101A740000230193002300930023012201210398F2
:101A8400FFF7C2FF00BF05B05DF804FB00B585B0E9
:101A940003900B468DF80B309DF80B200023019327
:101AA400002300931346002200210398FFF7ACFFA4
:101AB40000BF05B05DF804FB00B585B0019001AB33
:101AC4001846FFF77FFF0390019B012202FA03F3FC
:101AD4001946039800F086F800BF05B05DF804FBD2
:101AE40000B585B0019001AB1846FFF76BFF03907A
:101AF400019B012202FA03F31946039800F07CF8D3
:101B040000BF05B05DF804FB00B585B0019001ABE2
:101B14001846FFF757FF0390039BD3F8043502934D
:101B2400029BDA43019B012101FA03F31A40039B50
:101B3400C3F80825019B01229A40029B1A40039B8B
:101B4400C3F80C2500BF05B05DF804FB00B583B0F5
:101B540001900091009B002B03D10198FFF7C0FF77
:101B640002E00198FFF7A8FF00BF03B05DF804FB93
:101B740000B585B0019001AB1846FFF723FF039031
:101B8400039800F01FF80246019B22FA03F303F0C6
:101B94000103184605B05DF804FB00B585B001905B
:101BA40001AB1846FFF70EFF0390039800F012F8FC
:101BB4000246019B22FA03F303F00103184605B021
:101BC4005DF804FB82B00190019BD3F810351846F0
:101BD40002B0704782B00190019BD3F804351846D7
:101BE40002B0704782B001900091019B009AC3F843
:101BF400082500BF02B0704782B001900091019B9C
:101C0400009AC3F80C2500BF02B0704700B585B038
:101C14000190019B032B03D911493A2002F002F8E9
:101C2400104A019B13441B781846FFF7B6FF03467E
:101C3400002B14BF012300238DF80F309DF80F30C3
:101C4400002B14BF01230023DBB283F00103DBB2BA
:101C540003F00103DBB2184605B05DF804FB00BFD6
:101C640028FC020074FC020000B583B00190019BC3
:101C7400032B03D90749412001F0D4FF064A019BF5
:101C840013441B7800211846FFF760FF00BF03B020
:101C94005DF804FB28FC020074FC020000B583B06C
:101CA4000190019B032B03D90749472001F0BAFF98
:101CB400064A019B13441B7801211846FFF746FF8F
:101CC40000BF03B05DF804FB28FC020074FC0200B2
:101CD40000B583B00023019305E00198FFF7DEFF10
:101CE400019B01330193019B032BF6D900BF03B081
:101CF4005DF804FB00B583B00023019305E001986F
:101D0400FFF7B2FF019B01330193019B032BF6D92B
:101D140000BF03B05DF804FB00B583B00190019BE4
:101D2400032B03D907495F2001F07CFF064A019B7E
:101D340013441B781846FFF7E7FE00BF03B05DF8B5
:101D440004FB00BF28FC020074FC020000B583B051
:101D54000023019309E0094A019B13441B781846A8
:101D6400FFF783FE019B01330193019B032BF2D9FF
:101D7400FFF7AEFF00BF03B05DF804FB74FC020084
:101D840000B585B00190019B032B03D91149AC2008
:101D940001F048FF104A019B13441B781846FFF7D3
:101DA400E7FE0346002B14BF012300238DF80F30F8
:101DB4009DF80F30002B14BF01230023DBB283F006
:101DC4000103DBB203F00103DBB2184605B05DF892
:101DD40004FB00BF28FC020078FC020000B583B0BD
:101DE400002301930AE0094A019B13441B78032151
:101DF4001846FFF74BFE019B01330193019B032B14
:101E0400F1D900BF03B05DF804FB00BF78FC020009
:101E140084B001904FF0FF330293002303930DE04D
:101E24000A4A039B13441B781A46019B934202D12E
:101E3400039B029305E0039B01330393039B032B52
:101E4400EED9029B184604B0704700BF78FC02002C
:101E540000B583B00190019B03F00103002B01D076
:101E6400FFF774FF019B03F00203002B01D0FFF77F
:101E7400B5FF00BF03B05DF804FB000000B585B0FA
:101E84000190019800F00EF80390039B002B01D001
:101E9400039B00E0024B184605B05DF804FB00BF4D
:101EA4007CFC020086B00190164B0593164B0493FC
:101EB4001FE0049A059BD31ADB10DA0F13445B105E
:101EC400DB00059A13440393039B1B680293029A55
:101ED400019B9A4202DD039B04930AE0029A019B50
:101EE4009A4203DA039B0833059302E0039B5B6881
:101EF40004E0059A049B9A42DBD30023184606B0FB
:101F0400704700BF3C0203007404030000B583B0B3
:101F14000190019B1B781A460C4B9B5C002B05D04F
:101F2400019B0433184606F0AFFF0BE0019B1B78BE
:101F34001A46064B9B5C002B04D1019B0C331846BC
:101F440006F070F900BF03B05DF804FBF80B002045
:101F540008B500F079FD00F087F900F033F800F0DF
:101F64006FF814F0C1F800BF08BD000000B583B0DD
:101F740003F062F90190019B002B03D00349A420D4
:101F840001F050FE00BF03B05DF804FB74040300CD
:101F940008B500F0D5F9FCE762B600BF704772B629
:101FA40000BF704708B500F027F80346184608BD7F
:101FB40008B514F0A9F8024613461B019B1A9B02AC
:101FC400184608BD00B583B0002003F00DFD019054
:101FD400019B002B04D007494FF4867001F022FEC8
:101FE400FFF7E0FF0346184609F08EFA00BF03B07E
:101FF4005DF804FB7404030000B585B0002302936C
:102004000023039300238DF8073004E00DF1070348
:10201400184603F037FD9DF80730032BF6D902ABC1
:102024000421184603F04AFD0390039B002B01D0C2
:10203400002300E0029B184605B05DF804FB000095
:1020440000B583B003F028FE03460193019B012BE6
:1020540004D004494FF4957001F0E4FD00BF03B0CF
:102064005DF804FB7404030000B587B0039002918B
:102074000192039B002B05D140F2331143F65E30ED
:1020840010F0A6F9029B002B05D14FF49A7143F688
:102094005E3010F09DF9019B002B05D140F2351103
:1020A40043F65E3010F094F9019B002B17D0029B8D
:1020B400002B14D0039B002B11D0039803F04EFE89
:1020C4000299019803F006FE03460593059B012B34
:1020D40006D0054940F23D1001F0A4FD00E000BF28
:1020E40007B05DF804FB00BF7404030082B0EFF393
:1020F40005830193019B002B14BF01230023DBB252
:10210400184602B070470000000000002DE9F047B7
:1021140084B001904FF080531B6E99464FF0000A33
:102124004FF000034FF000044C460023CDE9023485
:102134004FF080535B6E99464FF0000ADDE902349C
:1021440049EA03074AEA0408CDE90278DDE90234E2
:102154004FF0FF374FF0FF0803EA070504EA0806CB
:10216400CDE90256DDE902340AA6D6E9005643EA6F
:10217400050144EA0602CDE9021202AB082219461F
:10218400019809F0E7F900BF04B0BDE8F08700BF8B
:10219400AFF30080000000000036CEF4014B184677
:1021A400704700BF9408002008B503F05BF800BF37
:1021B40008BD00BF704708B50CF06EF903465B7BA1
:1021C400002B01D0FFF7F0FF00BF08BD08B529F0D0
:1021D4000DFC0346022B02D000200AF08DFA03F016
:1021E40035FC0348FFF792FE2BF036FF00BF08BD15
:1021F4008C00002000B583B0002003F0F5FB0190B3
:10220400019B002B04D0064940F2C51001F00AFDE1
:10221400FEF714FA2BF00EFF00BF03B05DF804FBC9
:102224007404030000B585B0019000230393019B5F
:10223400002B01D1019B12E0FFF7C8FF019800F0C9
:1022440057FCFFF7B1FF00F07FFC0390FFF7D2FFCC
:10225400039B002B02D1039B013300E0039B184630
:1022640005B05DF804FB000008B510F003FB03465D
:10227400002B09D1054B1B78002B03D1044B1B7891
:10228400002B01D010F0FCFA00BF08BD11020020A1
:102294001402002000B585B00190009110F0EAFA14
:1022A4000346002B3DD038E0204B1B68C3F10803E4
:1022B4000393039A009B9A4201DD009B03931B4BFB
:1022C4001B681B4A1344039A0199184609F042F902
:1022D400164B1A68039B1344144A1360039B019A18
:1022E40013440193009A039BD31A00930F4B1B686A
:1022F400082B12D10F4B5B88022B0BD90E4A0F4BC4
:10230400D31ADB081B0443F00303082208491846C8
:10231400FEF770FE054B00221A60009B002BC3D110
:1023240000E000BF05B05DF804FB00BFE00800203A
:10233400D808002038000020DCF802006CF8020005
:1023440008B50E4B1B68002B14D00D4B5B88022B79
:102354000DD90C4A0C4BD31ADB081B0443F00300C1
:10236400064B1B689BB21A460849FEF743FE034B13
:1023740000221A60FEF7EEFE00BF08BDE008002050
:1023840038000020DCF802006CF80200D8080020B5
:1023940000B583B00190019B5B68002B04D06121E0
:1023A4004CF6C90010F014F8019B1B78022B02D8DC
:1023B40010F074FA05E06B214CF6C90010F008F82F
:1023C40000BF00BF03B05DF804FB84B04FF01023DE
:1023D4005B6903934FF080531B6902934FF0805362
:1023E4005B690193039BB3F1FF3F04D1019B029A04
:1023F40002FB03F300E0039B184604B0704708B5E2
:10240400FFF7E3FF0346A3F54043184608BD000069
:1024140000B585B00190FFF7D8FF02460D4B1A6155
:10242400FFF7EDFF02460B4BDA600B4B0022C3F8BB
:10243400082100220949074802F00AFA0390039B85
:10244400002B03D00649A82001F0ECFB00BF05B027
:102454005DF804FB78000020E4080020B8090300BC
:10246400D80403004FF480431846704702231846EB
:10247400704700B585B003900B460192ADF80A3061
:10248400BDF80A30002B02D16FF00A030DE0019B66
:10249400002B02D16FF00B0307E0039BBDF80A2069
:1024A4001946019809F056F80023184605B05DF85E
:1024B40004FB00B587B0029101921A4603468DF8D9
:1024C4000F301346ADF80C30002305939DF80F3000
:1024D400012B02D96FF0380328E0BDF80C20029BD1
:1024E4001344B3F5804F02D36FF016031EE0019B33
:1024F400002B02D16FF00B0318E0BDF80C30002B59
:1025040002D16FF00C0311E0FFF779FF02469DF84A
:102514000F309B031344029A13440593059BBDF8A3
:102524000C201946019809F015F80023184607B045
:102534005DF804FB00B589B0049103921A46034682
:102544008DF817301346ADF8143000230793002399
:1025540006939DF81730012B02D96FF038035DE024
:10256400BDF81420049B1344B3F5804F02D36FF0DD
:10257400160353E0039B002B02D16FF00B034DE0D5
:10258400BDF814309B089BB2002B02D16FF00C03F2
:1025940044E0FFF734FF02469DF817309B031344D1
:1025A400049A13440793BDF81430032B06D9BDF8DD
:1025B400143003F003039BB2002B05D040F23D110D
:1025C4004CF6C9000FF004FF00BF10F06FF903468A
:1025D400002BFAD110F05AF9BDF81420002300930F
:1025E4001346039A07990F4802F084F903460693A9
:1025F400069B002B05D04FF4A6714CF6C9000FF0D2
:10260400E7FE00BF10F052F90346002BFAD1069BF7
:10261400002B01D1002301E04FF0FF33184609B02D
:102624005DF804FB7800002000B587B002910192A8
:102634001A4603468DF80F301346ADF80C309DF85A
:102644000F300299184600F09BF80346002B0CD17A
:1026540000F07AF809E000F077F8029A059B134439
:102664000293019A059B13440193BDF80C309DF825
:102674000F00019A029900F0ADF80590059B9BB2FA
:10268400BDF80C20D31AADF80C30BDF80C30002B7B
:10269400E1D10023184607B05DF804FB00B587B00C
:1026A40003468DF8073000230593002303939DF818
:1026B4000730012B02D96FF038033FE0FFF79FFE8C
:1026C40002469DF807309B031344059300230493AB
:1026D4002BE000BF10F0EAF80346002BFAD110F00B
:1026E400D5F8002301220599164802F007FA03469B
:1026F4000393039B002B05D040F28D114CF6C900C7
:102704000FF066FE039B002B02D04FF0FF3315E061
:1027140000BF10F0CBF80346002BFAD1059B03F55C
:1027240080530593049B01330493049B032BD0D95A
:102734009DF80730184610F0C1F80023184607B07A
:102744005DF804FB7800002008B50C4BD3F8083181
:10275400002B10D0094B93F80001084BD3F8041157
:10276400064BD3F808319BB2044AFFF7E3FE034B50
:102774000022C3F8082100BF08BD00BFE408002000
:1027840082B0034600918DF80730114BD3F808311D
:10279400002B16D00E4B93F800319DF807209A4277
:1027A40011D10B4BD3F80421094BD3F8083113444E
:1027B400009A9A4207D1064BD3F80831B3F5807FCB
:1027C40001D0012300E00023DBB2184602B07047B9
:1027D400E408002000B587B0029101921A4603462E
:1027E4008DF80F301346ADF80C301D4BD3F808317B
:1027F400002B08D11A4A9DF80F3082F80031184A8C
:10280400029BC2F80431164BD3F80831C3F5807328
:102814000593BDF80C30059A9A4202D2059BADF897
:102824000C30BDF80C30002B13D00D4BD3F808310D
:102834000B4A1344BDF80C200199184608F08AFE8F
:10284400074BD3F80821BDF80C301344044AC2F8EE
:102854000831BDF80C30184607B05DF804FB00BF22
:10286400E408002000B585B0114B1B680293FFF704
:10287400C6FD034603F5004301AA04211846FFF7E9
:10288400F8FD0390039B002B0CD102A901AB042299
:10289400184608F0D0FD0346002B0CBF012300238B
:1028A400DBB200E00023184605B05DF804FB00BF6E
:1028B4003405030000B585B001900B46ADF8023035
:1028C4001346ADF80030FFF79AFD0246BDF800301C
:1028D400134403F500430433BDF80210019A18466B
:1028E400FFF7C7FD039000BF05B05DF804FB0000CF
:1028F400014B1846704700BF3805030084B00190AF
:10290400074A02AB92E8030083E80300019B1A46DE
:1029140002AB93E8030082E80300019804B0704717
:102924004005030082B00190019BD3F81035DBB25F
:10293400184602B07047000070B586B001900B468F
:102944008DF803309DF803300593019B19464FF031
:1029540000024FF000034FF00004140144EA117424
:102964000B01059AC2F12000A2F1200123FA02F51D
:1029740004FA00F0054324FA01F10D4324FA02F6A7
:10298400CDE90256DDE90234012C08BF002B04D343
:10299400044940F2B12001F045F9029B184606B003
:1029A40070BD00BF4805030000B583B001900091DD
:1029B400019B1B681846FFF7B5FF034619460098AC
:1029C400FFF7BAFF0346184603B05DF804FB0000A6
:1029D40008B50A4B1B78012B0ED1FFF789FF03467C
:1029E400184604F05FFFFFF783FF0346184604F020
:1029F400FBFE024B00221A7000BF08BD040A00202F
:102A040008B50D4B1B78002B01D100F01DF8FFF722
:102A14006FFF0346184604F073FF034683F0010377
:102A2400DBB2002B05D0FFF763FF0346184604F022
:102A34000BFF00BF08BD00BF040A0020014B1B7838
:102A440018467047040A002000B589B04FF470534B
:102A5400079303AB1846FFF751FFFFF749FF03AB9A
:102A6400144A194604F0C4FD0690069B002B03D0BB
:102A74001149632001F0D6F8FFF73AFF034607999E
:102A84001846FFF791FF0590FFF732FF01230093EB
:102A94000223059A012104F098FFFFF729FF03465A
:102AA400184604F0D1FE054B01221A7000BF09B08C
:102AB4005DF804FBC52A000080050300040A002019
:102AC40000B583B003460091ADF80630BDF806307A
:102AD400B3F5A27F02D10FF0F3FE00E000BF00BF08
:102AE40003B05DF804FB82B0019000BF02B07047F0
:102AF40000B583B001902CF06BFD02460F4B1A60B9
:102B0400019B002B15D00E4B0E4A9A600C4B0022F1
:102B1400DA600A4B1B680A4A1360019B4FF47A720D
:102B240002FB03F3064A5360002105482CF076FDAE
:102B340000E000BF03B05DF804FB00BF080A0020FA
:102B4400F0090020EB2A000000B583B000230193B4
:102B54002CF03EFD0246074B1B68D31A0193019BE0
:102B640003F2E733044AA2FB03239B09184603B08C
:102B74005DF804FB080A0020D34D62102DE9F047EC
:102B840092B0099000238DF84730ADE05C4B1A6891
:102B94009DF84730DB0013441093109B1B781846B4
:102BA4004FF001034FF00004A0F12002C0F1200116
:102BB40004FA00FA03FA02F24AEA020A23FA01F1D9
:102BC4004AEA010A03FA00F9CDE90E9A4D4BD3E91A
:102BD4000012DDE90E3401EA0300009002EA040366
:102BE4000193DDE90034234379D0DDE90E34DA437F
:102BF4000292E3430393434BD3E90034DDE902013A
:102C040002461A4004920A4602EA040305933D4B25
:102C1400DDE90412C3E90012109B1B78184603F087
:102C2400D1FF03468DF83730109B1B7818464FF0C0
:102C340001034FF00004A0F12002C0F1200104FAC6
:102C440000F603FA02F2164323FA01F10E4303FAE3
:102C540000F52D4BD3E9003405EA0302069206EA97
:102C6400040307939DF837104FF00002109B1B7864
:102C74001C46A4F12003C4F1200002FA04F801FA6E
:102C840003F348EA030821FA00F048EA000801FACD
:102C940004F7DDE90634444508BFBB421FD19DF863
:102CA4003720109B5B78012B0CBF01230023DBB280
:102CB4009A420CBF01230023DBB2DBB24FF00004C5
:102CC400CDE90A34109B5B68002B08D0109B5C682C
:102CD400109B1A789DF8283019461046A0479DF895
:102CE400473001338DF84730084B1A789DF8473048
:102CF4009342FFF44BAF00BF12B0BDE8F08700BFB2
:102D04000C0A0020400A0020380A0020100A002083
:102D14002DE9F04790B00B900B468DF82B304FF017
:102D240001034FF000040B98A0F12002C0F1200130
:102D340004FA00F603FA02F2164323FA01F10E43F1
:102D440003FA00F5CDE90E56394B184600F0DAFEC9
:102D54000D900D9B002B66D1364BD3E90012DDE9B3
:102D64000E3401EA0300009002EA04030193DDE952
:102D74000034234343D10B9803F024FF0346002B74
:102D840010D02D4BD3E90012DDE90E3441EA0300E3
:102D9400029042EA04030393274BDDE90212C3E9DC
:102DA400001213E0DDE90E346FEA03096FEA040A46
:102DB400214BD3E9003409EA030204920AEA04032A
:102DC40005931D4BDDE90412C3E90012194BD3E945
:102DD4000012DDE90E3441EA0300069042EA0403DE
:102DE4000793144BDDE90612C3E900121048134B94
:102DF4001B680022194600F053FE0D9014E0DDE933
:102E04000E34DF436FEA04080A4BD3E9003407EABF
:102E14000302089208EA04030993064BDDE9081249
:102E2400C3E9001200E000BF10B0BDE8F08700BFA6
:102E3400180A0020400A0020380A0020140A002042
:102E440010B58AB003900B4601928DF80B30019BAC
:102E5400042B01D807235AE003F0A6FD034683F0B0
:102E64000103DBB2002B09D003F04CFD0990099B50
:102E74000893089B002B01D0089B48E0254A039B3C
:102E84001360254A9DF80B301370244A019B13608C
:102E9400234A4FF000034FF00004C2E90034214AF2
:102EA4004FF000034FF00004C2E9003422E09DF823
:102EB4000B30DB00039A1344079305AB00210A4649
:102EC4001A800A469A7003238DF81430079B9B7866
:102ED4008DF81530079B1B78184605AB124A194626
:102EE40003F06EFD0990099B0693069B002B01D00D
:102EF400069B0CE09DF80B305A1E8DF80B20002B1E
:102F0400D5D10A4A00210A4800F09AFD0346184622
:102F14000AB010BD0C0A0020100A0020140A002078
:102F2400380A0020400A0020152D0000812B0000E3
:102F3400DC05030000B583B0114B1B68002B03D1E3
:102F44001049BA2000F06EFE002301930CE00C4BF4
:102F54001A68019BDB0013441B780121184603F017
:102F6400A9FD019B01330193074B1B781A46019B72
:102F74009342ECD30023184603B05DF804FB00BF72
:102F84000C0A0020E0050300100A002000B583B0FD
:102F940002900091019244F2010071466A4609F0E0
:102FA400C9FD03B000BD00BF82B003468DF80730F1
:102FB4009DF8073003F01F0205499DF907305B09AE
:102FC400012000FA02F241F8232000BF02B070474A
:102FD40000E100E082B003468DF807309DF8073029
:102FE40003F01F0206499DF907305B09012000FA2E
:102FF40002F2203341F8232000BF02B0704700BF23
:1030040000E100E082B003468DF807309DF80730F8
:1030140003F01F0206499DF907305B09012000FAFD
:1030240002F2403341F8232000BF02B0704700BFD2
:1030340000E100E082B003468DF807309DF80730C8
:1030440003F01F0206499DF907305B09012000FACD
:1030540002F2603341F8232000BF02B0704700BF82
:1030640000E100E082B0034600918DF807309DF93D
:103074000730002B0CDA009BDAB20C499DF80730BC
:1030840003F00F03043B5201D2B20B441A7609E059
:10309400009BDAB206499DF907305201D2B20B44C3
:1030A40083F8002300BF02B0704700BF00ED00E0CA
:1030B40000E100E000B585B00190019B002B0AD02F
:1030C400074B43F001030393019B9B010293039B72
:1030D4000298984700E000BF05B05DF804FB00BF0C
:1030E4004006030000B583B00190064A019BC2F874
:1030F400083506211120FFF7B5FF00BF03B05DF8C6
:1031040004FB00BF0010014008B50D4B4FF48032A2
:10311400C3F844230A4B4FF48032C3F8042311202C
:10312400FFF788FF1120FFF73FFF054B01221A60CC
:103134002F20FFF7BFFF034B01221A7000BF08BD09
:1031440000100140660B002008B51120FFF742FF74
:103154000E4B4FF48032C3F848230C4B4FF48032AB
:10316400C3F80823094B01225A602F20FFF7A2FF5E
:10317400064B01229A60064B00221A602F20FFF7AB
:1031840099FF044B00221A7000BF08BD00100140D3
:10319400580B0020660B0020024BD3F80435184668
:1031A400704700BF0010014082B001900091019A65
:1031B400009BD31A23F07F43184602B070470000E7
:1031C40082B00190034A019BC2F8403500BF02B0AF
:1031D400704700BF0010014086B00190284B1B6867
:1031E400002B03D1264A019B136045E0019B1A681A
:1031F400234B1B681B689A4210D8214B1B68196823
:10320400019B1A681E4B1B688A1A1A601C4B1A68A9
:10321400019BDA611A4A019B13602DE0019B1B6834
:103224000393174B1B680593154B1B68049309E024
:10323400049B1B68039AD31A0393049B0593049B72
:10324400DB690493049B002B04D0049B1B68039A42
:103254009A42EDD8049B002B05D0049B1A68039B6B
:10326400D21A049B1A60019B039A1A60019B049A68
:10327400DA61059B019ADA6100BF06B0704700BFAE
:10328400540B002000B587B001902A4B1B680393B0
:10329400284B1B680593059B049308E0049A019B43
:1032A4009A4208D0049B0593049BDB690493049B16
:1032B400002BF3D100E000BF049B002B01D10023BD
:1032C40033E0059A049B9A4214D11A4B1B68DB69BC
:1032D400184A1360174B1B68002B0BD1164B0122A5
:1032E4009A60164B00221A60154B01221A702F2087
:1032F400FFF7E0FE049B1B680293049BDA69059BBD
:10330400DA61059BDB690493049B002B05D0049BC5
:103314001A68029B1A44049B1A60064B1B68039AA2
:103324009A4214BF01230023DBB2184607B05DF8AC
:1033340004FB00BF540B002000100140580B002078
:10334400670B002008B51120FFF75CFE00BF08BD25
:1033540008B51420FFF756FE00BF08BD00B583B0C2
:103364000190019B5B69019A92691046984700BFDE
:1033740003B05DF804FB000000B585B02B4B1B685F
:10338400002B4ED000230193FFF706FF0246284B83
:103394001B6819461046FFF707FF0290234B1B6872
:1033A40003931DE0039B1B68029A9A421CD3039B60
:1033B4001B68029AD31A0293039B1B68019A134455
:1033C4000193039B0093039BDB690393009B1B7C8A
:1033D400002B05D0009B00221A740098FFF7BEFF53
:1033E400039B002BDED100E000BF124B1A78124B76
:1033F4001B789A420CD1104B1B780133DAB20E4B76
:103404001A700D4B1B78022B02D10B4B00221A7041
:10341400094B1B781946094A019B42F82130FFF7F2
:1034240097FF00BF05B05DF804FB00BF540B0020FC
:10343400580B0020640B0020650B00205C0B00205F
:1034440082B00190184B1A78184B1B789A4223D0FB
:10345400154B1B780133DAB2134B1A70124B1B78DD
:10346400022B02D1104B00221A700F4B1B781A4604
:103474000F4B53F82220019B1A60019B1A680D4BD5
:103484001B6813440B4A13600A4B1B6823F07F43E9
:10349400084A1360012303E0019B00221A60002301
:1034A400184602B0704700BF640B0020650B002073
:1034B4005C0B0020580B002088B00390029101920D
:1034C4000023079338E0204B1B680693069B1B6878
:1034D400039A9A4206D2069B1A68039BD21A069B49
:1034E4001A602DE0069B1B68039AD31A0393069B6C
:1034F4001B68079A13440793069B00221A60124B19
:103504001B680593069BDB690F4A1360069BDB6807
:10351400002B11D0029A079B134423F07F42069B91
:103524005A60069BDA68069B9A60019B1A68069BA0
:10353400DA61019B059A1A60034B1B68002BC2D108
:1035440000BF08B0704700BF540B002000B589B01D
:10355400019000238DF81F30664B1B680593AAE089
:10356400019B002B05D0019B0693069BDB6901930D
:1035740061E0614B1B781A4613465B001344DB0081
:103584005D4A1344043304935B4B1B780133DAB272
:10359400594B1A70584B1A78574B9B789A4202D160
:1035A400554B00221A70049B5B680693049B1B789E
:1035B400022B04D0032B1BD0012B1FD01DE0049B36
:1035C4005B681846FFF75EFE0346002B02D001231A
:1035D4008DF81F30069B00221A746CE0454B1B6863
:1035E4000393039B00221A74039BDB69414A136013
:1035F400404B1B68002BF1D15DE05CE000BF069BF3
:103604001B7C002B00D056E0049B9A68069B5A60F2
:10361400049BDA68069B9A60049B1A69069BDA602D
:10362400049B5A69069B9A61344B1B78002B02D089
:10363400069B00225A60069B5A68314B1B68D31ABA
:1036440023F07F432F4A93420ED8069B5A682C4B93
:103654001B6819461046FFF7A7FD0246069B9B68A8
:103664001A44069B1A6017E0254B1A68069B5B6890
:1036740019461046FFF798FD0290069B9B68029A34
:103684009A4206D2069B9A68029BD21A069B1A603B
:1036940002E0069B00221A60069B00225A60069BE9
:1036A40000229A60069B01221A74069B0022DA61AA
:1036B4000698FFF791FD019B002B7FF451AF0E4B51
:1036C4001A780D4B5B789A427FF44AAF9DF81F300D
:1036D400002B04D1074B1B68059A9A4201D00123A1
:1036E40000E0002303F00103DBB2184609B05DF8E3
:1036F40004FB00BF540B0020480A0020670B002085
:10370400580B0020FEFF7F0010B588B00190274BB6
:103714001B68002B44D0254B1B681B680793FFF7DD
:103724003BFD0690224B1B68059305990698FFF70D
:103734003BFD0346033304931E4B1B7883F00103C4
:10374400DBB2002B01D0FFF7DFFC049A079B934206
:1037540038BF1346059A13440593059B23F07F4312
:1037640005930598FFF72CFDFFF716FD03900699C6
:103774000398FFF719FD0346DC1C06990598FFF72B
:1037840013FD03469C420DD9FFF706FD0346184678
:10379400FFF716FD2F20FFF78DFCFFF7D3FD01E0A7
:1037A400FFF7D2FC00BF08B010BD00BF540B0020CF
:1037B400580B0020660B002000B587B0002301934E
:1037C40000238DF81730194B1B680493184B1B68A2
:1037D40003936B461846FFF733FE03468DF80B3010
:1037E4009DF80B30002B08D0009B01AA04991846C1
:1037F400FFF762FE01238DF81730019B1846FFF78F
:10380400A5FE0346002B02D001238DF817309DF846
:103814001730002B02D00398FFF776FF054B0022E8
:103824001A7000BF07B05DF804FB00BF580B0020FE
:10383400540B0020670B002082B003468DF807303C
:10384400034A9DF80730537000BF02B0704700BFB1
:10385400480A002084B00190144B5B7801338DF842
:103864000F30124B9B789DF80F209A4202D100230F
:103874008DF80F300D4B1B789DF80F209A4201D123
:1038840000230FE0019B9DF80F201A70074B5B7813
:103894001A4613465B001344DB00044A1344043302
:1038A4000293029B184604B0704700BF480A0020E8
:1038B40000B589B00390029101920093002307930D
:1038C400002000F059F90DF117031846FFF7C2FF65
:1038D4000690069B002B02D10423079318E0069B55
:1038E40001221A70069B039A5A60FFF755FC0246A0
:1038F400069B9A60069B029ADA60069B019A1A61FB
:10390400069B009A5A619DF817301846FFF794FFFA
:10391400002000F045F9079B002B01D1FFF718FDAB
:10392400079B184609B05DF804FB00B587B0019009
:103934000B468DF8033000230593002000F01CF99A
:103944000DF10F031846FFF785FF0490049B002B2D
:1039540002D1042305930BE0049B9DF803201A7005
:10396400049B019A5A609DF80F301846FFF764FFD4
:10397400002000F015F9059B002B01D1FFF7E8FCAE
:10398400059B184607B05DF804FB000008B50E4B14
:103994000022C3F840210C4B0022C3F844210A4BF7
:1039A4000022C3F84821084B0022C3F84C21064BDF
:1039B4000022C3F80021044B0022C3F80421FFF7BE
:1039C400DBFC00BF08BD00BF0010014008B5FFF7D5
:1039D400F3FE00BF08BD000008B5FFF7B5FB134BAD
:1039E40000221A70114B00225A70104B0B229A704D
:1039F4000F4B00221A600F4B00221A700E4B00224C
:103A04001A701420FFF716FB06211420FFF72AFB77
:103A14001420FFF7C9FA0020FFF764FBFFF7BCFB93
:103A24000246064B1A600023184608BD480A0020C7
:103A3400540B0020640B0020650B0020580B002061
:103A440086B003900B4601928DF80B30134B9B7894
:103A5400002B01D108231EE0019B002B01D1072379
:103A640019E0039B002B01D1072314E0039B1B687F
:103A74001B7C002B01D008230DE0039B1B680593DE
:103A8400059B00221A74059B9DF80B205A74059B14
:103A9400019A5A610023184606B07047480A00206C
:103AA40000B587B0039002910192039B0593144BD8
:103AB4009B78002B01D108231EE0039B002B01D12E
:103AC400082319E0029B042B01D8072314E0059B6B
:103AD4005B69002B01D108230EE0059B5B7C012B65
:103AE40001D1029B00E000230493019B049A0299F4
:103AF4000598FFF7DDFE0346184607B05DF804FBA2
:103B0400480A002000B585B00190019B03930D4B3A
:103B14009B78002B01D1082310E0019B002B03D0DC
:103B2400039B5B69002B01D1082307E0039B002260
:103B34001A7402210398FFF7F8FE0346184605B0ED
:103B44005DF804FB480A002072B6034B1B6801337E
:103B5400014A136000BF7047680B0020054B1B68C7
:103B6400013B044A1360034B1B68002B00D162B66F
:103B740000BF7047680B002000B583B0019000F0CF
:103B840025F80346012B03D00449432000F04AF8EA
:103B9400FFF7DAFF00BF03B05DF804FB480603003B
:103BA40000B583B003468DF8073000F00FF80346E4
:103BB400012B03D00449512000F034F8FFF7CEFF65
:103BC40000BF03B05DF804FB4806030084B0EFF3C4
:103BD40005830193019BC3F308030393039B002B09
:103BE4000DD1EFF314830093009B0293029B03F027
:103BF4000103002B0CBF01230023DBB200E00123EF
:103C0400184604B0704700B585B003900291019244
:103C1400019B9BB20299184600F004F800BF05B05E
:103C24005DF804FB00B585B003460091ADF806309D
:103C3400BDF80630ADF80830009B039302AB1A467A
:103C4400002144F2020008F075FF00BF05B05DF8E2
:103C540004FB10B487B001900091019B009A53E8D3
:103C6400004F104643E8000191F0000FF7D105948E
:103C740004900391059B184607B05DF8044B704708
:103C840010B487B001900091019B009A53E8004F53
:103C940044EA020043E8000191F0000FF6D10594D4
:103CA40004900391059B184607B05DF8044B7047D8
:103CB40010B487B001900091019B009A53E8004F23
:103CC40044EA020043E8000191F0000FF6D10594A4
:103CD40004900391049B184607B05DF8044B7047A9
:103CE40010B487B001900091019B009A53E8004FF3
:103CF40004EA020043E8000191F0000FF6D10594B4
:103D040004900391059B184607B05DF8044B704777
:103D140010B487B001900091019B009A53E8004FC2
:103D240004EA020043E8000191F0000FF6D1059483
:103D340004900391049B184607B05DF8044B704748
:103D440010B487B001900091019B009A53E8004F92
:103D540004EB020043E8000191F0000FF6D1059452
:103D640004900391049B184607B05DF8044B704718
:103D740010B487B001900091019B009A53E8004F62
:103D8400A4EB020043E8000191F0000FF6D1059482
:103D940004900391049B184607B05DF8044B7047E8
:103DA40000B583B0019001210198FFF769FF034634
:103DB400184603B05DF804FB00B583B001900121FF
:103DC4000198FFF775FF0346184603B05DF804FB3E
:103DD40000B583B0019000210198FFF781FF0346ED
:103DE400184603B05DF804FB00B583B001900021D0
:103DF4000198FFF78DFF0346184603B05DF804FBF6
:103E040000B583B001900B468DF80330019B002B65
:103E140003D10849E820FFF705FF019BDA689DF804
:103E240003300199898A01FB03F31344184603B054
:103E34005DF804FBA806030000B583B0019000916F
:103E4400019B002B03D10849F520FFF7EBFE009BF3
:103E5400019AD2689B1A019A928AB3FBF2F3DBB2FD
:103E6400184603B05DF804FBA806030000B585B04E
:103E74000190019B002B01D10E234CE0019B1B6898
:103E8400002B03D12649FF20FFF7CCFE019B5B6882
:103E9400002B04D122494FF48070FFF7C3FE019B2D
:103EA4009B68002B04D11E4940F20110FFF7BAFEB3
:103EB400019BDB68002B04D119494FF48170FFF793
:103EC400B1FE019B9B8A002B04D1154940F20310DB
:103ED400FFF7A8FE019B9A68019B5B68D31A8DF8D3
:103EE4000F30019B1B68019A52681A6007E0019B1E
:103EF4001A681368591C11609DF80F201A709DF8F8
:103F04000F305A1E8DF80F20002BF0D1019B1B6837
:103F140000221A710023184605B05DF804FB00BFA7
:103F2400A806030000B585B00190019B002B04D1C5
:103F34001C494FF49270FFF775FE00230393002091
:103F4400FFF71AFE019B1B681A68019B5B689A4283
:103F54001FD9019B1B681A68013A1A601B681B78F9
:103F640019460198FFF74CFF0390019B9A68019B47
:103F74001B681B68D31A8DF80B30019B1B681B79D7
:103F84009DF80B209A4204D9019B1B689DF80B20D5
:103F94001A710020FFF704FE039B184605B05DF874
:103FA40004FB00BFA806030010B584B00190009183
:103FB400019B002B04D1114940F24710FFF732FE58
:103FC400009B002B04D10D494FF4A470FFF72AFE87
:103FD400009B03930020FFF7CFFD019B1B681C6827
:103FE400621C1A6003990198FFF726FF03462370A9
:103FF4000020FFF7D5FD00BF04B010BDA8060300E4
:1040040000B583B00190019B002B03D10C493120F2
:10401400FFF708FE019B9B68002B0CD0019B5B699A
:10402400019A1069019A1168019A92689847019B54
:1040340000229A6000E000BF03B05DF804FB00BFFB
:10404400040703000EB400B584B00190019B002B5B
:1040540003D118494220FFF7E5FD019B5B69002B62
:1040640003D114494320FFF7DDFD019B1B68002B9E
:1040740003D110494420FFF7D5FD019B5B68002B59
:1040840003D10C494520FFF7CDFD059B002B0AD039
:104094000023039306AB039303AB1A4605990198D7
:1040A40000F0B8F900E000BF04B05DF804EB03B021
:1040B400704700BF0407030000B583B001900B46AE
:1040C4008DF803309DF803300A2B03D10D2101989C
:1040D400FFF7F2FF019B1A68019B9B68581C01992A
:1040E400886013449DF803201A70019B9A68019B11
:1040F4005B689A4202D30198FFF782FF00BF03B0C6
:104104005DF804FB00B587B003900291019200931F
:1041140000230593009B03F00103002B24D00BE044
:10412400029B01330293059B013305939DF81330E1
:1041340019460398FFF7C0FF029B1B788DF81330D4
:104144009DF81330002BEBD106E0019B013B01935A
:1041540020210398FFF7B0FF019A059B9A422ED9BC
:10416400019B002BF1D12AE0029B002B0BD002987B
:1041740007F04CFA059006E0019B013B01932021D6
:104184000398FFF799FF019A059B9A420FD9019B67
:10419400002BF1D10BE0029B01330293059B013309
:1041A40005939DF8133019460398FFF785FF029B8A
:1041B4001B788DF813309DF81330002BEBD100BF22
:1041C40007B05DF804FB000000B589B003900291CC
:1041D40001920093029B07930123069307E0079A39
:1041E400019BB2FBF3F30793069B01330693079AF3
:1041F400019B9A42F3D2009A069B9A4201D9009BF2
:1042040006930B9B03F00103002B22D10A9B002B86
:104214001FD00B9B03F00203002B06D0009B002B46
:1042240003D130238DF8173002E020238DF81730A6
:1042340008E00A9B013B0A939DF81730194603983E
:10424400FFF73AFF0A9B002B03D0069A0A9B9A4277
:10425400EFD301230793009B012B03D9009B013B60
:10426400009309E0029A079BB2FBF3F30493049AC8
:10427400019B9A4200D205E0079B019A02FB03F3DB
:104284000793E8E7029A079BB2FBF3F30493049BBA
:10429400079A02FB03F3029AD31A0293154A049B6A
:1042A40013441B7819460398FFF706FF079A019BEE
:1042B400B2FBF3F30793079B002BE3D10B9B03F0B3
:1042C4000103002B11D00A9B002B0ED006E00A9BA1
:1042D400013B0A9320210398FFF7EEFE0A9B002B73
:1042E40003D0069A0A9B9A42F1D300BF09B05DF845
:1042F40004FB00BFAC07030000B589B0059004912E
:1043040003920293049B002BB8BF5B4206930123E4
:10431400079307E0039B069A92FBF3F30693079B2C
:1043240001330793039B069A9A42F3DA029A079B96
:104334009A4201D9029B07930A9B002B0AD0049B43
:10434400002B04DB0B9B03F00403002B02D00A9B1D
:10435400013B0A930B9B03F00203002B02D0029B48
:10436400002B16D00B9B03F00103002B11D10A9BE9
:10437400002B0ED006E00A9B013B0A9320210598EE
:10438400FFF79AFE0A9B002B03D0079A0A9B9A42D6
:10439400F1D3049B002B07DA049B5B4204932D2189
:1043A4000598FFF789FE08E00B9B03F00403002B3C
:1043B40003D02B210598FFF77FFE0B9B03F002032C
:1043C400002B19D00B9B03F00103002B14D1029B8B
:1043D400002B11D10A9B002B0ED006E00A9B013B57
:1043E4000A9330210598FFF767FE0A9B002B03D040
:1043F400079A0A9B9A42F1D304990B9B01930A9B57
:104404000093029B039A0598FFF7DEFE00BF09B0F4
:104414005DF804FB00B58FB0059004910392059BF1
:10442400002B04D1C8494FF4A270FFF7FBFB059B96
:104434005B69002B04D1C4494FF4A370FFF7F2FB6E
:10444400059B1B68002B04D1BF4940F24710FFF7BE
:10445400E9FB059B5B68002B04D1BB494FF4A470B6
:10446400FFF7E0FB049B002B00F0ED81049B1B781D
:104474008DF83730049B013304939DF83730002BBB
:1044840000F0D8819DF83730252B40F0C7810023F8
:104494000A9301230C93049B1B788DF837309DF805
:1044A40037302D2B04D0302B0AD02B2B10D017E013
:1044B4000A9B43F001030A93049B0133049312E023
:1044C4000A9B43F002030A93049B013304930AE01A
:1044D4000A9B43F004030A93049B0133049302E010
:1044E40000230C9300BF0C9B002BD4D10023099311
:1044F4009DF837302A2B0CD1039B1B68191D039A96
:1045040011601B68099A13440993049B01330493B3
:104514001AE0049B1B788DF837309DF837302F2B29
:1045240012D99DF83730392B0ED8049B01330493EC
:10453400099A13469B0013445B001A469DF83730D2
:104544001344303B0993D3E700230B93049B1B785C
:104554008DF837309DF837302E2B1DD1049B013355
:104564000493049B1B788DF837309DF837302F2B3C
:1045740012D99DF83730392B0ED8049B013304939C
:104584000B9A13469B0013445B001A469DF8373080
:104594001344303B0B93E4E7049B1B788DF83730CE
:1045A4009DF837306C2B03D09DF83730682B07D13A
:1045B400049B01330493049B1B788DF83730EFE799
:1045C4009DF83730253B532B00F2238101A252F88A
:1045D40023F000BF0D4800001748000017480000F2
:1045E400174800001748000017480000174800004B
:1045F400174800001748000017480000174800003B
:10460400174800001748000017480000174800002A
:10461400174800001748000017480000174800001A
:10462400174800001748000017480000174800000A
:1046340017480000174800001748000017480000FA
:1046440017480000174800001748000017480000EA
:1046540017480000174800001748000017480000DA
:1046640017480000174800001748000017480000CA
:1046740017480000174800001748000017480000BA
:1046840017480000174800001748000017480000AA
:10469400174800001748000017480000174800009A
:1046A4009947000017480000174800001748000009
:1046B400174800001748000017480000174800007A
:1046C4001748000017480000174800002947000059
:1046D4005147000017480000174800001748000021
:1046E4001748000051470000174800001748000011
:1046F400174800001748000017480000174800003A
:10470400D94700001748000017480000BD470000C3
:1047140017480000754700001748000017480000BC
:1047240099470000039B1B68191D039A11601B68BD
:104734000C930C9B8DF823309DF823301946059873
:10474400FFF7BAFC66E000BF54070300039B1B6835
:10475400191D039A11601B680C930A9B0193099B12
:1047640000930B9B0A220C990598FFF7C5FD51E0B5
:10477400039B1B68191D039A11601B680C930C9909
:104784000A9B0193099B00930B9B0A220598FFF750
:104794001BFD3FE0039B1B68191D039A11601B68F6
:1047A4000C930C990A9B0193099B00930B9B102279
:1047B4000598FFF709FD2DE0039B1B68191D039A5B
:1047C40011601B6807930A9B099A07990598FFF7DC
:1047D40099FC1FE0039B1B68191D039A11601B6859
:1047E4000C9330210598FFF767FC78210598FFF7B3
:1047F40063FC0C99002301930823009308231022DF
:104804000598FFF7E1FC05E025210598FFF754FC26
:1048140000E000BF049B0133049305E09DF83730AA
:1048240019460598FFF748FC049B1B78002B7FF47E
:104834001DAE00E000BF059B1B7B002B04D0059838
:10484400FFF7DEFB00E000BF0FB05DF804FB00BF24
:1048540000B587B0059004910392059B002B14D1F9
:104864001D4B5B88002B0ED01C4A1D4BD31ADB0852
:104874001B0443F001001B4A1B490E2300930B4603
:104884001A49FCF788FB0E2321E0049B002B14D16A
:10489400114B5B88002B0ED0104A114BD31ADB0846
:1048A4001B0443F00100124A0F490E2300930B46E8
:1048B4000E49FCF770FB0E2309E0059B049A1A606D
:1048C400059B1B681B68039905989847034618467F
:1048D40007B05DF804FB00BF28000020BCF802000C
:1048E4006CF80200CC07030070090300D40703002E
:1048F4000008030010B586B005900491039202935A
:10490400059B002B14D1704B5B88002B0ED06F4A93
:104914006F4BD31ADB081B0443F001006D4A6E4948
:104924000E2300930B466D49FCF735FB0E23C7E0BD
:10493400039B002B14D1644B5B88002B0ED0634A7D
:10494400634BD31ADB081B0443F00100644A624939
:104954000E2300930B466149FCF71DFB0E23AFE0C9
:10496400059B1B68002B14D1574B5B88002B0ED082
:10497400564A574BD31ADB081B0443F00100594A2B
:104984005549082300930B465449FCF704FB0823BC
:1049940096E0029B002B14D14B4B5B88002B0ED06E
:1049A4004A4A4B4BD31ADB081B0443F001004E4A1E
:1049B4004949092300930B464849FCF7ECFA0923BB
:1049C4007EE0059B5B685A68029BB3FBF2F102FB35
:1049D40001F29B1A002B14D03B4B5B88002B0ED0AA
:1049E4003A4A3B4BD31ADB081B0443F001003F4A0D
:1049F4003949092300930B463849FCF7CCFA0923BB
:104A04005EE0049800F042F90346002B14D12E4BCB
:104A14005B88002B0ED02D4A2D4BD31ADB081B04C8
:104A240043F00100324A2C49102300930B462B49D2
:104A3400FCF7B1FA102343E0039B184600F026F973
:104A44000346002B14D1204B5B88002B0ED01F4A49
:104A54001F4BD31ADB081B0443F00100254A1E49EF
:104A6400102300930B461D49FCF795FA102327E009
:104A7400029A0499059800F0EFF80346002B14D12C
:104A8400114B5B88002B0ED0104A114BD31ADB0854
:104A94001B0443F00100184A0F49102300930B46EE
:104AA4000E49FCF778FA10230AE0059B1B68DC68C2
:104AB400089B0093029B039A04990598A047034618
:104AC400184606B010BD00BF28000020BCF8020044
:104AD4006CF80200CC07030084090300D407030028
:104AE40060080300080803001C08030068080300AA
:104AF40094080300AC080300D008030010B586B086
:104B04000590049103920293059B002B14D1484B0A
:104B14005B88002B0ED0474A474BD31ADB081B0493
:104B240043F00100454A46490E2300930B4645498C
:104B3400FCF731FA0E2378E0059B1B68002B14D197
:104B44003B4B5B88002B0ED03A4A3B4BD31ADB0815
:104B54001B0443F001003C4A3949082300930B46E7
:104B64003849FCF718FA08235FE0039B002B14D1A3
:104B74002F4B5B88002B0ED02E4A2F4BD31ADB0809
:104B84001B0443F00100314A2D49092300930B46CD
:104B94002C49FCF700FA092347E00499059800F032
:104BA40082F80346002B14D1214B5B88002B0ED0D6
:104BB400204A214BD31ADB081B0443F00100244A8A
:104BC4001F49102300930B461E49FCF7E4F91023F8
:104BD4002BE0059B5B681B68039A02FB03F31A46F0
:104BE4000499059800F038F80346002B14D1104BB3
:104BF4005B88002B0ED00F4A0F4BD31ADB081B0423
:104C040043F00100134A0E49102300930B460D494B
:104C1400FCF7C1F9102308E0059B1B681C69029B83
:104C2400039A04990598A0470346184606B010BD98
:104C340028000020BCF802006CF80200CC07030036
:104C440098090300D4070300080803001C080300A4
:104C5400F80803002009030084B003900291019234
:104C6400039BDB68029A9A4209D3029A019B13447C
:104C74005A1E039B1B699A4201D8012300E00023BA
:104C840003F00103DBB2184604B0704782B0019010
:104C9400019B03F00303002B0CBF01230023DBB2B1
:104CA400184602B0704782B001900091019B5B6886
:104CB4001B685A1E009B1340002B0CBF01230023CA
:104CC400DBB2184602B0704700B58BB00390019276
:104CD40000930B468DF80B30039B9B68002B13D07D
:104CE4009DF80B308DF8103000230593009B06933C
:104CF400019B07930C9B08930D9B0993039B9B6853
:104D040004AA1046984700E000BF0BB05DF804FB0E
:104D140082B001900091019B024A5A600023184618
:104D240002B07047AC09030000B583B00190009154
:104D34000348FFF759F80023184603B05DF804FB55
:104D44006C0B002000B585B0039002910192009392
:104D5400029B009A1946019806F0FCFB00231846B2
:104D640005B05DF804FB000000B587B00590049120
:104D7400039202931148FFF713F80346002B01D066
:104D8400112316E00422029BB3FBF2F31A460399A3
:104D9400049801F01DF80948FFF726F8089B0193D1
:104DA400029B0093049B039A01210598FFF78CFF53
:104DB4000023184607B05DF804FB00BF6C0B00200D
:104DC40000B589B0059004910392029300230793E0
:104DD4001548FEF7E5FF0346002B0ED011231EE015
:104DE4004FF48052079B03FB02F2049B13441846C2
:104DF40000F0CEFF079B01330793079A039B9A4267
:104E0400EED10948FEF7F0FF029B0193039B009348
:104E1400049B002202210598FFF756FF0023184641
:104E240009B05DF804FB00BF6C0B002082B0019058
:104E34000091009B184602B0704782B00190009127
:104E44000023184602B0704782B00190044B1B68DF
:104E5400002B14BF01230023DBB2184602B07047B5
:104E64006C0B002000B583B001900198FEF7FEFFA3
:104E74000346184603B05DF804FB00B58BB00190FF
:104E84000091019B9B8A043B0793009A079B134460
:104E9400DA1C079BB2FBF3F38DF81B300198FFF784
:104EA40041F80590059B002B01D1002338E0059BB8
:104EB40000221A71059B01225A71079B9AB2059B25
:104EC400DA80059B09939DF81B30013B0493099BF1
:104ED400019A1A60002308931DE00198FFF722F855
:104EE4000390039B002B0ED0059B5B790133DAB250
:104EF400059B5A71099B039A1A60039B019A1A60D5
:104F0400039B099304E0059800F00EF8002307E0E2
:104F1400089B01330893089A049B9A42DDD3059BAE
:104F240018460BB05DF804FB00B58BB00190019BF3
:104F34000793079B5B798DF81B30019B08939DF8C1
:104F44001B30013B05930023099305E0089B1B6874
:104F54000893099B01330993099A059B9A42F5D357
:104F6400089B1B680493019B0893002309930BE09F
:104F7400089B1B68039308990498FFF715F8039B93
:104F84000893099B013309939DF81B30099A9A42AF
:104F9400EED300BF0BB05DF804FB00B585B0019003
:104FA400019B0393039B043301211846FEF7C8FEBB
:104FB40000BF05B05DF804FB00B587B00190019B0C
:104FC4000593059B043301211846FEF7D1FE0346E1
:104FD400039303AB0493049B1B78002B02D1019829
:104FE400FFF7A2FF00BF07B05DF804FB00B591B066
:104FF4000390029101920093039B002B03D1434938
:10500400B620FEF70FFE039B0993039B0F93099BA6
:10501400DB881A46099B5B7903FB02F3043B089384
:10502400009A089B9A4203D33849C420FEF7FAFD3C
:10503400099BDB880793009B1A1D079BB2FBF3F3C4
:105044000E93009B0433079AB3FBF2F2079901FB1A
:1050540002F29B1A0D93019B1A68009B1344089A51
:105064009A4203D2089A009BD31A01E0019B1B6861
:105074000C93019B0C9A1A6005E00F9B1B680F931D
:105084000E9B013B0E930E9B002BF6D100230B933A
:10509400079A0D9BD31A0A930A9A0C9B934228BF32
:1050A40013460A932AE0029A0B9B134406930F9A21
:1050B4000D9B1344043305939DF84830002B05D011
:1050C4000A9A0599069806F045FA04E00A9A0699A0
:1050D400059806F03FFA00230D930F9B1B680F936E
:1050E4000C9A0A9BD31A0C930B9A0A9B13440B93A6
:1050F400079A0C9B934228BF13460A930C9B002BE0
:10510400D1D100BF11B05DF804FB00BFD809030082
:1051140000B589B00590049103920293039B079311
:1051240007AA00230093029B04990598FFF75EFFEA
:10513400079B039A9A4203D00349F620FEF772FDB7
:1051440000BF09B05DF804FBD809030000B589B0BD
:105154000590049103920293039B079307AA0123EA
:105164000093029B04990598FFF740FF079B039A5D
:105174009A4204D004494FF48070FEF753FD00BFF7
:1051840009B05DF804FB00BFD809030082B00346F0
:105194008DF807309DF8073003F01F0206499DF98A
:1051A40007305B09012000FA02F2603341F8232042
:1051B40000BF02B0704700BF00E100E000B583B05B
:1051C4000190019B002B03D106497220FEF72AFDB2
:1051D400019B00221A60BFF35F8F00BF03B05DF82C
:1051E40004FB00BF900A030000B585B00020FEF761
:1051F400C3FCF1EE103A0193019B0393039B23F04C
:105204009F030293029BE1EE103ABFF35F8F2620C7
:10521400FFF7BCFF0020FEF7C3FC039B03F007036A
:10522400002B03D003497D20FEF7FCFC00BF05B032
:105234005DF804FBDC0A030008B5064B00221A7073
:105244000548FFF7BBFF0549054800F015FA0023A0
:10525400184608BD740B0020700B00203C0B0300A3
:10526400780B002008B5FFF7BFFF20BF40BF20BF69
:1052740000BF08BD00B583B001900091019B002BD5
:1052840003D108497720FEF7CDFC019B9B68009A67
:105294009A4202D2009B013300E00023184603B077
:1052A4005DF804FB480B030084B00190019B1B686C
:1052B4001B680393019B1B685B680293029A039B20
:1052C4009A4203D3029A039BD31A06E0019B9A687D
:1052D400039BD21A029B13440133184604B070474F
:1052E40000B585B00190019B002B03D10D498A20A4
:1052F400FEF798FC019B1B681B680393019B1B68CA
:105304005B68029302990198FFF7B4FF0246039B7E
:1053140093420CBF01230023DBB2184605B05DF8AD
:1053240004FB00BF480B030010B586B00190009148
:1053340000230493019B002B03D152499520FEF7CF
:1053440071FC009B002B03D14E499620FEF76AFCAA
:105354000020FEF711FC0198FFF7C2FF03468DF809
:1053640017309DF8173083F00103DBB2002B03D113
:10537400019B1B7C002B7AD1019B1B685B68039308
:10538400019B1B685A68019B1C6811460198FFF732
:1053940071FF034663609DF81730002B0AD0019B10
:1053A4001B681A68019B1C6811460198FFF762FF8D
:1053B40003462360019BDB68013B072B37D801A21E
:1053C40052F823F0E9530000F9530000335400006D
:1053D4000B540000335400003354000033540000D5
:1053E4001D540000019B5A68039B1344009A1278D1
:1053F4001A702DE0019B5A68039B5B001344009ACA
:1054040012881A8024E0019B5A68039B9B00134472
:10541400009A12681A601BE0019B5A68039BDB0028
:105424001A44009BD3E90034C2E9003410E0019B24
:105434005B681946019BDB68039A02FB03F30B4488
:105444001846019BDB681A46009906F083F800BFF2
:105454000198FFF729FF0290019B1B689B68029A41
:105464009A4207D9019B1B68029A9A6002E00423BE
:10547400049300E000BF0020FEF792FB049B184653
:1054840006B010BD480B030000B58BB00390029129
:105494000192039B1B681B680993039B1B685B6851
:1054A4000893099A089B9A4203D8089A099BD31A2D
:1054B40004E0039B9A68099BD31A01330793039B67
:1054C4005B681946039BDB68099A02FB03F30B44F0
:1054D4000693019A079B9A4219D8039BDB68019AA9
:1054E40002FB03F31A460699029806F033F8099A68
:1054F400019B1A44039B9B689A4203D8099A019B17
:10550400134400E00023039A1268136020E0039B15
:10551400DA68079B02FB03F30593059A0699029840
:1055240006F018F8019A079BD31A0493029A059B74
:1055340013441846039B5968039BDB68049A02FBD7
:1055440003F31A4606F006F8039B1B68049A1A60D4
:1055540000BF0BB05DF804FB00B587B00390029167
:10556400019200230593039B002B04D1154940F2BB
:10557400B710FEF757FB029B002B04D111494FF4DF
:10558400DC70FEF74FFB019B002B01D1002315E0DB
:105594000020FEF7F1FA0398FFF786FE0246019B0E
:1055A400934205D8019A02990398FFF76DFF01E031
:1055B400052305930020FEF7F3FA059B184607B070
:1055C4005DF804FB480B030000B583B00190019B18
:1055D400002B04D10A4940F2EF10FEF723FB002010
:1055E400FEF7CAFA019B1B680C220021184605F03D
:1055F400DAFF0020FEF7D4FA00BF03B05DF804FB25
:10560400480B030000B585B00190019B002B04D129
:10561400094940F2FD10FEF705FB0020FEF7ACFA45
:105624000198FFF741FE03900020FEF7B9FA039BAF
:10563400184605B05DF804FB480B030082B00190E6
:10564400019B9B6800229A60019B9B6800221A615F
:10565400019B9B6800225A61019B9B680022DA60CF
:10566400019B9B6800225A60019B9B6800221A6080
:1056740000BF02B07047000000B583B001900091F4
:10568400019B002B03D110495020FEF7CBFA009B5D
:10569400002B03D10C495120FEF7C4FA019B009A58
:1056A4001A60019B1B681A68019B5A60019B5A6827
:1056B400019B1B685B689A4202D1019B00225A60DD
:1056C40000BF03B05DF804FBA00B030008B500F0B5
:1056D40031FD00BF08BD000008B500F045FD024BD8
:1056E40000225A7000BF08BD800B002000B583B0B3
:1056F40000230193104B1B78002B02D085230193C8
:1057040014E00D4B00229A600B4B00225A600A4BA6
:1057140000221A61084B0022DA60084800F0B6FC47
:10572400019000F0D9FC044B01221A70019B184629
:1057340003B05DF804FB00BF800B00207959000022
:1057440084B001900091019B1B68039306E0039AC7
:10575400009B9A420DD0039B1B680393039B002B71
:10576400F5D1019B1A68009B1A60019B009A1A608C
:1057740000E000BF04B0704784B00190019B1B6837
:105784000393039B002B03D0039B1A68019B1A60AD
:10579400039B184604B0704700B583B00190224BB8
:1057A4001B78002B03D12149E920FEF73BFA1E4B5D
:1057B4009B78DBB2002B12D0019B002B03D0019B02
:1057C4005B68012098470020FEF7D6F9164BDB688A
:1057D4000133154AD3600020FEF7E2F917E00020F8
:1057E400FEF7CAF9019B002B03D001991048FFF77B
:1057F400A7FF0D4BDB68002B01D100F081FC0A4BA5
:10580400DB680133084AD3600020FEF7C9F9064B70
:10581400DB68002B04D1054940F20510FEF702FABB
:1058240000BF03B05DF804FB800B00201C0C0300D8
:10583400900B002000B583B00190234B1B78002B04
:1058440004D122494FF49370FEF7ECF91E4B5B78B8
:10585400DBB2002B12D0019B002B03D0019B5B68B1
:10586400002098470020FEF787F9174B5B68013347
:10587400154A53600020FEF793F917E00020FEF765
:105884007BF9019B002B03D001991148FFF758FFC6
:105894000D4B5B68002B01D1FFF718FF0A4B5B68C7
:1058A4000133094A53600020FEF77AF9064B5B681E
:1058B400002B04D105494FF4A170FEF7B3F900BFE2
:1058C40003B05DF804FB00BF800B00201C0C030038
:1058D400880B002008B5124B1B78002B04D111490A
:1058E40040F24710FEF79EF90D4B5B68002B04D184
:1058F4000C494FF4A470FEF795F90020FEF73CF92B
:10590400074B5B68013B064A5360054B5B68002B01
:1059140001D1FFF7E1FE0020FEF742F900BF08BD08
:10592400800B00201C0C030000B585B003468DF8E5
:1059340007309DF80730002B02D10C4B039301E094
:105944000B4B03930398FFF717FF0290029B002B66
:1059540006D0029B5B689DF8072010469847F1E744
:1059640000BF00BF05B05DF804FB00BF880B00203A
:10597400900B002000B583B003468DF807309DF8E6
:105984000730002B05D10A4B01225A700020FFF783
:10599400CBFF9DF80730012B05D1054B01229A70EE
:1059A4000120FFF7C1FF00BF03B05DF804FB00BF97
:1059B400800B002000B583B003468DF807300DF14D
:1059C400070319460748FFF7AFFC0648FFF788FCB2
:1059D4000346002B01D001F04BFC00BF03B05DF87F
:1059E40004FB00BF54F8020000B585B00190002309
:1059F4000393124B1B78002B01D0852319E0019BE4
:105A0400002B01D10E4B01930C4B019A01331288E8
:105A14001A800C490C4801F0D3FB0390039B002B24
:105A240001D0039B05E001F009FC044B01221A702C
:105A3400039B184605B05DF804FB00BF940B0020DF
:105A4400E80C0300B9590000950B002008B50A4B77
:105A54001B78012B03D009499020FEF7E3F801F0ED
:105A640007FC01F01BFC0648FFF7AEFD024B0022C9
:105A74001A7000BF08BD00BF940B0020900C0300F7
:105A840054F8020000B583B00190094B1B78012B38
:105A940003D00849A320FEF7C5F80748FFF7B2FD75
:105AA4000346DAB2019B1A7000BF03B05DF804FB31
:105AB400940B0020900C030054F8020000B585B04C
:105AC40001900B468DF8033000230393104B1B7891
:105AD400012B03D00F49B720FEF7A4F89DF803303B
